{"contracts/CrowEscrow.sol":{"CrowEscrow":{"abi":[{"inputs":[{"internalType":"address","name":"_authenticator","type":"address"}],"stateMutability":"nonpayable","type":"constructor"},{"anonymous":false,"inputs":[{"indexed":true,"internalType":"uint256","name":"escrowId","type":"uint256"},{"indexed":true,"internalType":"address","name":"buyer","type":"address"}],"name":"BuyerSigned","type":"event"},{"anonymous":false,"inputs":[{"indexed":true,"internalType":"uint256","name":"escrowId","type":"uint256"},{"indexed":true,"internalType":"address","name":"raiser","type":"address"}],"name":"DisputeRaised","type":"event"},{"anonymous":false,"inputs":[{"indexed":true,"internalType":"uint256","name":"escrowId","type":"uint256"},{"indexed":false,"internalType":"uint256","name":"amount","type":"uint256"}],"name":"EscrowActivated","type":"event"},{"anonymous":false,"inputs":[{"indexed":true,"internalType":"uint256","name":"escrowId","type":"uint256"},{"indexed":false,"internalType":"string","name":"reason","type":"string"}],"name":"EscrowCancelled","type":"event"},{"anonymous":false,"inputs":[{"indexed":true,"internalType":"uint256","name":"escrowId","type":"uint256"},{"indexed":true,"internalType":"address","name":"buyer","type":"address"},{"indexed":true,"internalType":"address","name":"seller","type":"address"}],"name":"EscrowCompleted","type":"event"},{"anonymous":false,"inputs":[{"indexed":true,"internalType":"uint256","name":"escrowId","type":"uint256"},{"indexed":true,"internalType":"address","name":"buyer","type":"address"},{"indexed":true,"internalType":"address","name":"seller","type":"address"},{"indexed":false,"internalType":"uint256","name":"amount","type":"uint256"}],"name":"EscrowCreated","type":"event"},{"anonymous":false,"inputs":[{"indexed":true,"internalType":"uint256","name":"escrowId","type":"uint256"},{"indexed":false,"internalType":"uint256","name":"amount","type":"uint256"}],"name":"FundsDeposited","type":"event"},{"anonymous":false,"inputs":[{"indexed":true,"internalType":"uint256","name":"escrowId","type":"uint256"},{"indexed":true,"internalType":"address","name":"seller","type":"address"}],"name":"SellerSigned","type":"event"},{"inputs":[],"name":"authenticationFee","outputs":[{"internalType":"uint256","name":"","type":"uint256"}],"stateMutability":"view","type":"function"},{"inputs":[],"name":"authenticatorAddress","outputs":[{"internalType":"address","name":"","type":"address"}],"stateMutability":"view","type":"function"},{"inputs":[{"internalType":"uint256","name":"_escrowId","type":"uint256"}],"name":"buyerSign","outputs":[],"stateMutability":"nonpayable","type":"function"},{"inputs":[{"internalType":"uint256","name":"_escrowId","type":"uint256"},{"internalType":"string","name":"_reason","type":"string"}],"name":"cancelEscrow","outputs":[],"stateMutability":"nonpayable","type":"function"},{"inputs":[{"internalType":"address","name":"_buyer","type":"address"},{"internalType":"address","name":"_seller","type":"address"},{"internalType":"uint256","name":"_amount","type":"uint256"},{"internalType":"string","name":"_productTitle","type":"string"},{"internalType":"string","name":"_productDescription","type":"string"},{"internalType":"string","name":"_deliveryAddress","type":"string"},{"internalType":"uint256","name":"_estimatedDeliveryDays","type":"uint256"},{"internalType":"string","name":"_ipfsHash","type":"string"}],"name":"createEscrow","outputs":[{"internalType":"uint256","name":"","type":"uint256"}],"stateMutability":"nonpayable","type":"function"},{"inputs":[{"internalType":"uint256","name":"_escrowId","type":"uint256"}],"name":"depositFunds","outputs":[],"stateMutability":"payable","type":"function"},{"inputs":[],"name":"escrowCount","outputs":[{"internalType":"uint256","name":"","type":"uint256"}],"stateMutability":"view","type":"function"},{"inputs":[{"internalType":"uint256","name":"","type":"uint256"}],"name":"escrows","outputs":[{"internalType":"address","name":"buyer","type":"address"},{"internalType":"address","name":"seller","type":"address"},{"internalType":"address","name":"authenticator","type":"address"},{"internalType":"uint256","name":"amount","type":"uint256"},{"internalType":"string","name":"productTitle","type":"string"},{"internalType":"string","name":"productDescription","type":"string"},{"internalType":"string","name":"deliveryAddress","type":"string"},{"internalType":"uint256","name":"estimatedDeliveryDays","type":"uint256"},{"internalType":"enum CrowEscrow.EscrowState","name":"state","type":"uint8"},{"internalType":"bool","name":"buyerSigned","type":"bool"},{"internalType":"bool","name":"sellerSigned","type":"bool"},{"internalType":"bool","name":"fundsDeposited","type":"bool"},{"internalType":"uint256","name":"createdAt","type":"uint256"},{"internalType":"uint256","name":"completedAt","type":"uint256"},{"internalType":"string","name":"ipfsHash","type":"string"}],"stateMutability":"view","type":"function"},{"inputs":[{"internalType":"uint256","name":"_escrowId","type":"uint256"}],"name":"getEscrow","outputs":[{"internalType":"address","name":"buyer","type":"address"},{"internalType":"address","name":"seller","type":"address"},{"internalType":"uint256","name":"amount","type":"uint256"},{"internalType":"string","name":"productTitle","type":"string"},{"internalType":"string","name":"productDescription","type":"string"},{"internalType":"enum CrowEscrow.EscrowState","name":"state","type":"uint8"},{"internalType":"bool","name":"buyerSigned","type":"bool"},{"internalType":"bool","name":"sellerSigned","type":"bool"},{"internalType":"bool","name":"fundsDeposited","type":"bool"},{"internalType":"uint256","name":"createdAt","type":"uint256"}],"stateMutability":"view","type":"function"},{"inputs":[],"name":"getTotalEscrows","outputs":[{"internalType":"uint256","name":"","type":"uint256"}],"stateMutability":"view","type":"function"},{"inputs":[{"internalType":"address","name":"_user","type":"address"}],"name":"getUserEscrows","outputs":[{"internalType":"uint256[]","name":"","type":"uint256[]"}],"stateMutability":"view","type":"function"},{"inputs":[],"name":"owner","outputs":[{"internalType":"address","name":"","type":"address"}],"stateMutability":"view","type":"function"},{"inputs":[{"internalType":"uint256","name":"_escrowId","type":"uint256"}],"name":"sellerSign","outputs":[],"stateMutability":"nonpayable","type":"function"},{"inputs":[{"internalType":"address","name":"","type":"address"},{"internalType":"uint256","name":"","type":"uint256"}],"name":"userEscrows","outputs":[{"internalType":"uint256","name":"","type":"uint256"}],"stateMutability":"view","type":"function"}],"evm":{"bytecode":{"linkReferences":{},"object":"608034608e57601f61182138819003918201601f19168301916001600160401b03831184841017609357808492602094604052833981010312608e57516001600160a01b03811690819003608e57662386f26fc10000600555600380546001600160a01b0319908116331790915560048054909116919091179055600060025560405161177790816100aa8239f35b600080fd5b634e487b7160e01b600052604160045260246000fdfe6080604052600436101561001257600080fd5b60003560e01c8063012f52ee146113445780631fc6cf221461131b5780632efea2b6146112fd5780633b76594d146111095780633f4dbda2146110315780635ccea85e1461104f578063675ac67a146110315780637d19e59614610f365780637f944dd014610edd5780638da5cb5b14610eb4578063c535bbb214610d0f578063d2af2bcb14610b2b578063d5b504ce1461098b5763e29a4cc8146100b657600080fd5b3461098657610100366003190112610986576100d06115dc565b6024356001600160a01b0381169190829003610986576044359160643567ffffffffffffffff81116109865761010a903690600401611620565b60843567ffffffffffffffff81116109865761012a903690600401611620565b9260a43567ffffffffffffffff81116109865761014b903690600401611620565b9060e43567ffffffffffffffff81116109865761016c903690600401611620565b6001600160a01b0390911692848414610935578315158061092c575b156108f35786156108ae578051156108705760025460045460405191976101e08301916001600160a01b03169067ffffffffffffffff8311848410176106d457899260405287845260208401918983526040850190815260608501978c89526080860196875260a0860192835260c0860190815260e086019060c43582526101008701936000855261012088019860008a5261014089019b60008d526101608a0195600087526101808b0198428a526101a08c019a60008c526101c08d019e8f52600052600060205260406000209b60018060a01b039060018060a01b03905116166001600160601b0360a01b8d5416178c5560018060a01b0390511660018c019060018060a01b03166001600160601b0360a01b82541617905560018060a01b0390511660028b019060018060a01b03166001600160601b0360a01b8254161790555160038a015560048901905180519067ffffffffffffffff82116106d45781906102f5845461148e565b601f811161081d575b50602090601f83116001146107b8576000926107ad575b50508160011b916000199060031b1c19161790555b518051600589019167ffffffffffffffff82116106d457819061034d845461148e565b601f811161075a575b50602090601f83116001146106f5576000926106ea575b50508160011b916000199060031b1c19161790555b518051600688019167ffffffffffffffff82116106d45781906103a5845461148e565b601f8111610681575b50602090601f831160011461061c57600092610611575b50508160011b916000199060031b1c19161790555b5160078601556008850191519760098910156105fb57825496519051915163ffffffff1990971660ff9099169890981797151560081b61ff00169790971796151560101b62ff0000169690961793151560181b63ff0000001693909317909455905160098201559151600a830155518051600092600b019167ffffffffffffffff82116105e757819061046d845461148e565b601f8111610597575b50602090601f8311600114610534578592610529575b50508160011b916000199060031b1c19161790555b81815260016020526104b68460408320611707565b82815260016020526104cb8460408320611707565b60025490600019821461051557507f9405ad0a6208539879349284d71265479b1623846f70303da1f9890d6e8c10a7602080966001879401600255604051908152a4604051908152f35b634e487b7160e01b81526011600452602490fd5b01519050388061048c565b8486528186209250601f198416865b81811061057f5750908460019594939210610566575b505050811b0190556104a1565b015160001960f88460031b161c19169055388080610559565b92936020600181928786015181550195019301610543565b90915083855260208520601f840160051c810191602085106105dd575b90601f859493920160051c01905b8181106105cf5750610476565b8681558493506001016105c2565b90915081906105b4565b634e487b7160e01b84526041600452602484fd5b634e487b7160e01b600052602160045260246000fd5b0151905038806103c5565b60008581528281209350601f198516905b8181106106695750908460019594939210610650575b505050811b0190556103da565b015160001960f88460031b161c19169055388080610643565b9293602060018192878601518155019501930161062d565b909150836000526020600020601f840160051c810191602085106106ca575b90601f859493920160051c01905b8181106106bb57506103ae565b600081558493506001016106ae565b90915081906106a0565b634e487b7160e01b600052604160045260246000fd5b01519050388061036d565b60008581528281209350601f198516905b8181106107425750908460019594939210610729575b505050811b019055610382565b015160001960f88460031b161c1916905538808061071c565b92936020600181928786015181550195019301610706565b909150836000526020600020601f840160051c810191602085106107a3575b90601f859493920160051c01905b8181106107945750610356565b60008155849350600101610787565b9091508190610779565b015190503880610315565b60008581528281209350601f198516905b81811061080557509084600195949392106107ec575b505050811b01905561032a565b015160001960f88460031b161c191690553880806107df565b929360206001819287860151815501950193016107c9565b909150836000526020600020601f840160051c81019160208510610866575b90601f859493920160051c01905b81811061085757506102fe565b6000815584935060010161084a565b909150819061083c565b60405162461bcd60e51b8152602060048201526016602482015275141c9bd91d58dd081d1a5d1b19481c995c5d5a5c995960521b6044820152606490fd5b60405162461bcd60e51b815260206004820152601d60248201527f416d6f756e74206d7573742062652067726561746572207468616e20300000006044820152606490fd5b60405162461bcd60e51b8152602060048201526011602482015270496e76616c69642061646472657373657360781b6044820152606490fd5b50841515610188565b60405162461bcd60e51b815260206004820152602360248201527f427579657220616e642073656c6c65722063616e6e6f74206265207468652073604482015262616d6560e81b6064820152608490fd5b600080fd5b3461098657602036600319011261098657600435600254811080610b23575b6109b390611677565b600081815260208190526040902080546001600160a01b03163303610ade57600881019081549160ff8360081c16610aa25760ff83169260098410156105fb5761010060ff91610a0e86889715908115610a97575b506116bb565b61ff0019161780835560101c1615610a845760037fe3c2e3e893e063a23ddc6faab3e3c024f0524199c4af658eef25bb4eb35e390d926020928260ff198254161790550154604051908152a25b33907f7749be28cf64fe132c4475feb0aec4133f13f95a84f1869a42911a8a7a0f0f31600080a3005b805460ff1916600117905550610a5b9050565b600291501489610a08565b60405162461bcd60e51b8152602060048201526014602482015273109d5e595c88185b1c9958591e481cda59db995960621b6044820152606490fd5b60405162461bcd60e51b815260206004820152601c60248201527f4f6e6c792062757965722063616e207369676e206173206275796572000000006044820152606490fd5b5060016109aa565b346109865760403660031901126109865760043560243567ffffffffffffffff811161098657610b5f903690600401611620565b81600052600060205260018060a01b036040600020541633148015610ced575b15610c9457600254821080610c8c575b610b9890611677565b816000526000602052600860406000200160ff815416600981101590816105fb578015918215610c7e575b8215610c6d575b505015610c1a57805460ff1916600817905560405160208082527fdf5af23a8bfbd700e381c19607d03504d7a5ba1876c669cccd37feace1f5adaa928291610c15919083019061158e565b0390a2005b60405162461bcd60e51b815260206004820152602560248201527f43616e6e6f742063616e63656c20616374697665206f722066756e64656420656044820152647363726f7760d81b6064820152608490fd5b9091506105fb576002148480610bca565b506001811491506000610bc3565b506001610b8f565b60405162461bcd60e51b815260206004820152602b60248201527f4f6e6c79206275796572206f722073656c6c65722063616e2063616c6c20746860448201526a34b990333ab731ba34b7b760a91b6064820152608490fd5b5081600052600060205260018060a01b03600160406000200154163314610b7f565b3461098657602036600319011261098657600435600254811080610eac575b610d3790611677565b600081815260208190526040902060018101546001600160a01b03163303610e6757600881019081549160ff8360101c16610e2a5760ff83169260098410156105fb576201000060ff91610d9586889715908115610e1f57506116bb565b62ff000019161780835560081c1615610e0c5760037fe3c2e3e893e063a23ddc6faab3e3c024f0524199c4af658eef25bb4eb35e390d926020928260ff198254161790550154604051908152a25b33907fac7ba79cfe162acf79b705d52b263ce0b8f67692678c90740474f1ff780f2475600080a3005b805460ff1916600217905550610de39050565b600191501489610a08565b60405162461bcd60e51b815260206004820152601560248201527414d95b1b195c88185b1c9958591e481cda59db9959605a1b6044820152606490fd5b60405162461bcd60e51b815260206004820152601e60248201527f4f6e6c792073656c6c65722063616e207369676e2061732073656c6c657200006044820152606490fd5b506001610d2e565b34610986576000366003190112610986576003546040516001600160a01b039091168152602090f35b3461098657604036600319011261098657610ef66115dc565b6001600160a01b031660009081526001602052604090208054602435919082101561098657602091610f27916115f2565b90549060031b1c604051908152f35b3461098657602036600319011261098657600435600254811080611029575b610f5e90611677565b6000526000602052604060002060018060a01b0381541660018060a01b036001830154169160038101549060ff610fe9600883015493610fdb600985015494610fb56005610fae600484016114ea565b92016114ea565b92604051998a998a5260208a01526040890152610140606089015261014088019061158e565b90868203608088015261158e565b92610ff960a086018383166115cf565b818160081c16151560c0860152818160101c16151560e086015260181c1615156101008401526101208301520390f35b506001610f55565b34610986576000366003190112610986576020600254604051908152f35b34610986576020366003190112610986576001600160a01b036110706115dc565b16600052600160205260406000206040518060208354918281520190819360005260206000209060005b8181106110f357505050816110b09103826114c8565b6040519182916020830190602084525180915260408301919060005b8181106110da575050500390f35b82518452859450602093840193909201916001016110cc565b825484526020909301926001928301920161109a565b6020366003190112610986576004356002548110806112f5575b61112c90611677565b600081815260208190526040902080546001600160a01b031633036112b057600881019081549060ff821660098110156105fb5760030361125c5760ff8260181c16611217576003015460055481018091116112015734036111c45763010000009063ff00000019161790557f26679fa1f3868c950e9362f1106cf73f3318de0280e0411a3c68e4b463eadd4f6020604051348152a2005b60405162461bcd60e51b8152602060048201526015602482015274125b98dbdc9c9958dd08185b5bdd5b9d081cd95b9d605a1b6044820152606490fd5b634e487b7160e01b600052601160045260246000fd5b60405162461bcd60e51b815260206004820152601760248201527f46756e647320616c7265616479206465706f73697465640000000000000000006044820152606490fd5b60405162461bcd60e51b815260206004820152602660248201527f457363726f77206d7573742062652061637469766520746f206465706f7369746044820152652066756e647360d01b6064820152608490fd5b60405162461bcd60e51b815260206004820152601c60248201527f4f6e6c792062757965722063616e206465706f7369742066756e6473000000006044820152606490fd5b506001611123565b34610986576000366003190112610986576020600554604051908152f35b34610986576000366003190112610986576004546040516001600160a01b039091168152602090f35b346109865760203660031901126109865760048035600090815260208190526040902080546001820154600283015460038401546001600160a01b03928316959383169491909216926113989082016114ea565b916113a5600583016114ea565b926113b2600684016114ea565b600784015494600885015492600986015494600a87015496600b016113d6906114ea565b986040519b8c9b8c5260208c015260408b015260608a0152608089016101e090526101e089016114059161158e565b88810360a08a01526114169161158e565b87810360c08901526114279161158e565b9360e0870152610100860160ff821690611440916115cf565b8060081c60ff1615156101208701528060101c60ff16151561014087015260181c60ff1615156101608601526101808501526101a08401528281036101c084015261148a9161158e565b0390f35b90600182811c921680156114be575b60208310146114a857565b634e487b7160e01b600052602260045260246000fd5b91607f169161149d565b90601f8019910116810190811067ffffffffffffffff8211176106d457604052565b90604051918260008254926114fe8461148e565b808452936001811690811561156c5750600114611525575b50611523925003836114c8565b565b90506000929192526020600020906000915b8183106115505750509060206115239282010138611516565b6020919350806001915483858901015201910190918492611537565b90506020925061152394915060ff191682840152151560051b82010138611516565b919082519283825260005b8481106115ba575050826000602080949584010152601f8019910116010190565b80602080928401015182828601015201611599565b9060098210156105fb5752565b600435906001600160a01b038216820361098657565b805482101561160a5760005260206000200190600090565b634e487b7160e01b600052603260045260246000fd5b81601f820112156109865780359067ffffffffffffffff82116106d45760405192611655601f8401601f1916602001856114c8565b8284526020838301011161098657816000926020809301838601378301015290565b1561167e57565b60405162461bcd60e51b8152602060048201526015602482015274115cd8dc9bddc8191bd95cc81b9bdd08195e1a5cdd605a1b6044820152606490fd5b156116c257565b60405162461bcd60e51b815260206004820152601960248201527f496e76616c696420737461746520666f72207369676e696e67000000000000006044820152606490fd5b8054680100000000000000008110156106d457611729916001820181556115f2565b819291549060031b91821b91600019901b191617905556fea26469706673582212204b0497db310dbfccd1ae5d68d8e27ea11485d6485deb48c6c68dbbafe22f83d864736f6c634300081c0033","opcodes":"PUSH1 0x80 CALLVALUE PUSH1 0x8E JUMPI PUSH1 0x1F PUSH2 0x1821 CODESIZE DUP2 SWAP1 SUB SWAP2 DUP3 ADD PUSH1 0x1F NOT AND DUP4 ADD SWAP2 PUSH1 0x1 PUSH1 0x1 PUSH1 0x40 SHL SUB DUP4 GT DUP5 DUP5 LT OR PUSH1 0x93 JUMPI DUP1 DUP5 SWAP3 PUSH1 0x20 SWAP5 PUSH1 0x40 MSTORE DUP4 CODECOPY DUP2 ADD SUB SLT PUSH1 0x8E JUMPI MLOAD PUSH1 0x1 PUSH1 0x1 PUSH1 0xA0 SHL SUB DUP2 AND SWAP1 DUP2 SWAP1 SUB PUSH1 0x8E JUMPI PUSH7 0x2386F26FC10000 PUSH1 0x5 SSTORE PUSH1 0x3 DUP1 SLOAD PUSH1 0x1 PUSH1 0x1 PUSH1 0xA0 SHL SUB NOT SWAP1 DUP2 AND CALLER OR SWAP1 SWAP2 SSTORE PUSH1 0x4 DUP1 SLOAD SWAP1 SWAP2 AND SWAP2 SWAP1 SWAP2 OR SWAP1 SSTORE PUSH1 0x0 PUSH1 0x2 SSTORE PUSH1 0x40 MLOAD PUSH2 0x1777 SWAP1 DUP2 PUSH2 0xAA DUP3 CODECOPY RETURN JUMPDEST PUSH1 0x0 DUP1 REVERT JUMPDEST PUSH4 0x4E487B71 PUSH1 0xE0 SHL PUSH1 0x0 MSTORE PUSH1 0x41 PUSH1 0x4 MSTORE PUSH1 0x24 PUSH1 0x0 REVERT INVALID PUSH1 0x80 PUSH1 0x40 MSTORE PUSH1 0x4 CALLDATASIZE LT ISZERO PUSH2 0x12 JUMPI PUSH1 0x0 DUP1 REVERT JUMPDEST PUSH1 0x0 CALLDATALOAD PUSH1 0xE0 SHR DUP1 PUSH4 0x12F52EE EQ PUSH2 0x1344 JUMPI DUP1 PUSH4 0x1FC6CF22 EQ PUSH2 0x131B JUMPI DUP1 PUSH4 0x2EFEA2B6 EQ PUSH2 0x12FD JUMPI DUP1 PUSH4 0x3B76594D EQ PUSH2 0x1109 JUMPI DUP1 PUSH4 0x3F4DBDA2 EQ PUSH2 0x1031 JUMPI DUP1 PUSH4 0x5CCEA85E EQ PUSH2 0x104F JUMPI DUP1 PUSH4 0x675AC67A EQ PUSH2 0x1031 JUMPI DUP1 PUSH4 0x7D19E596 EQ PUSH2 0xF36 JUMPI DUP1 PUSH4 0x7F944DD0 EQ PUSH2 0xEDD JUMPI DUP1 PUSH4 0x8DA5CB5B EQ PUSH2 0xEB4 JUMPI DUP1 PUSH4 0xC535BBB2 EQ PUSH2 0xD0F JUMPI DUP1 PUSH4 0xD2AF2BCB EQ PUSH2 0xB2B JUMPI DUP1 PUSH4 0xD5B504CE EQ PUSH2 0x98B JUMPI PUSH4 0xE29A4CC8 EQ PUSH2 0xB6 JUMPI PUSH1 0x0 DUP1 REVERT JUMPDEST CALLVALUE PUSH2 0x986 JUMPI PUSH2 0x100 CALLDATASIZE PUSH1 0x3 NOT ADD SLT PUSH2 0x986 JUMPI PUSH2 0xD0 PUSH2 0x15DC JUMP JUMPDEST PUSH1 0x24 CALLDATALOAD PUSH1 0x1 PUSH1 0x1 PUSH1 0xA0 SHL SUB DUP2 AND SWAP2 SWAP1 DUP3 SWAP1 SUB PUSH2 0x986 JUMPI PUSH1 0x44 CALLDATALOAD SWAP2 PUSH1 0x64 CALLDATALOAD PUSH8 0xFFFFFFFFFFFFFFFF DUP2 GT PUSH2 0x986 JUMPI PUSH2 0x10A SWAP1 CALLDATASIZE SWAP1 PUSH1 0x4 ADD PUSH2 0x1620 JUMP JUMPDEST PUSH1 0x84 CALLDATALOAD PUSH8 0xFFFFFFFFFFFFFFFF DUP2 GT PUSH2 0x986 JUMPI PUSH2 0x12A SWAP1 CALLDATASIZE SWAP1 PUSH1 0x4 ADD PUSH2 0x1620 JUMP JUMPDEST SWAP3 PUSH1 0xA4 CALLDATALOAD PUSH8 0xFFFFFFFFFFFFFFFF DUP2 GT PUSH2 0x986 JUMPI PUSH2 0x14B SWAP1 CALLDATASIZE SWAP1 PUSH1 0x4 ADD PUSH2 0x1620 JUMP JUMPDEST SWAP1 PUSH1 0xE4 CALLDATALOAD PUSH8 0xFFFFFFFFFFFFFFFF DUP2 GT PUSH2 0x986 JUMPI PUSH2 0x16C SWAP1 CALLDATASIZE SWAP1 PUSH1 0x4 ADD PUSH2 0x1620 JUMP JUMPDEST PUSH1 0x1 PUSH1 0x1 PUSH1 0xA0 SHL SUB SWAP1 SWAP2 AND SWAP3 DUP5 DUP5 EQ PUSH2 0x935 JUMPI DUP4 ISZERO ISZERO DUP1 PUSH2 0x92C JUMPI JUMPDEST ISZERO PUSH2 0x8F3 JUMPI DUP7 ISZERO PUSH2 0x8AE JUMPI DUP1 MLOAD ISZERO PUSH2 0x870 JUMPI PUSH1 0x2 SLOAD PUSH1 0x4 SLOAD PUSH1 0x40 MLOAD SWAP2 SWAP8 PUSH2 0x1E0 DUP4 ADD SWAP2 PUSH1 0x1 PUSH1 0x1 PUSH1 0xA0 SHL SUB AND SWAP1 PUSH8 0xFFFFFFFFFFFFFFFF DUP4 GT DUP5 DUP5 LT OR PUSH2 0x6D4 JUMPI DUP10 SWAP3 PUSH1 0x40 MSTORE DUP8 DUP5 MSTORE PUSH1 0x20 DUP5 ADD SWAP2 DUP10 DUP4 MSTORE PUSH1 0x40 DUP6 ADD SWAP1 DUP2 MSTORE PUSH1 0x60 DUP6 ADD SWAP8 DUP13 DUP10 MSTORE PUSH1 0x80 DUP7 ADD SWAP7 DUP8 MSTORE PUSH1 0xA0 DUP7 ADD SWAP3 DUP4 MSTORE PUSH1 0xC0 DUP7 ADD SWAP1 DUP2 MSTORE PUSH1 0xE0 DUP7 ADD SWAP1 PUSH1 0xC4 CALLDATALOAD DUP3 MSTORE PUSH2 0x100 DUP8 ADD SWAP4 PUSH1 0x0 DUP6 MSTORE PUSH2 0x120 DUP9 ADD SWAP9 PUSH1 0x0 DUP11 MSTORE PUSH2 0x140 DUP10 ADD SWAP12 PUSH1 0x0 DUP14 MSTORE PUSH2 0x160 DUP11 ADD SWAP6 PUSH1 0x0 DUP8 MSTORE PUSH2 0x180 DUP12 ADD SWAP9 TIMESTAMP DUP11 MSTORE PUSH2 0x1A0 DUP13 ADD SWAP11 PUSH1 0x0 DUP13 MSTORE PUSH2 0x1C0 DUP14 ADD SWAP15 DUP16 MSTORE PUSH1 0x0 MSTORE PUSH1 0x0 PUSH1 0x20 MSTORE PUSH1 0x40 PUSH1 0x0 KECCAK256 SWAP12 PUSH1 0x1 DUP1 PUSH1 0xA0 SHL SUB SWAP1 PUSH1 0x1 DUP1 PUSH1 0xA0 SHL SUB SWAP1 MLOAD AND AND PUSH1 0x1 PUSH1 0x1 PUSH1 0x60 SHL SUB PUSH1 0xA0 SHL DUP14 SLOAD AND OR DUP13 SSTORE PUSH1 0x1 DUP1 PUSH1 0xA0 SHL SUB SWAP1 MLOAD AND PUSH1 0x1 DUP13 ADD SWAP1 PUSH1 0x1 DUP1 PUSH1 0xA0 SHL SUB AND PUSH1 0x1 PUSH1 0x1 PUSH1 0x60 SHL SUB PUSH1 0xA0 SHL DUP3 SLOAD AND OR SWAP1 SSTORE PUSH1 0x1 DUP1 PUSH1 0xA0 SHL SUB SWAP1 MLOAD AND PUSH1 0x2 DUP12 ADD SWAP1 PUSH1 0x1 DUP1 PUSH1 0xA0 SHL SUB AND PUSH1 0x1 PUSH1 0x1 PUSH1 0x60 SHL SUB PUSH1 0xA0 SHL DUP3 SLOAD AND OR SWAP1 SSTORE MLOAD PUSH1 0x3 DUP11 ADD SSTORE PUSH1 0x4 DUP10 ADD SWAP1 MLOAD DUP1 MLOAD SWAP1 PUSH8 0xFFFFFFFFFFFFFFFF DUP3 GT PUSH2 0x6D4 JUMPI DUP2 SWAP1 PUSH2 0x2F5 DUP5 SLOAD PUSH2 0x148E JUMP JUMPDEST PUSH1 0x1F DUP2 GT PUSH2 0x81D JUMPI JUMPDEST POP PUSH1 0x20 SWAP1 PUSH1 0x1F DUP4 GT PUSH1 0x1 EQ PUSH2 0x7B8 JUMPI PUSH1 0x0 SWAP3 PUSH2 0x7AD JUMPI JUMPDEST POP POP DUP2 PUSH1 0x1 SHL SWAP2 PUSH1 0x0 NOT SWAP1 PUSH1 0x3 SHL SHR NOT AND OR SWAP1 SSTORE JUMPDEST MLOAD DUP1 MLOAD PUSH1 0x5 DUP10 ADD SWAP2 PUSH8 0xFFFFFFFFFFFFFFFF DUP3 GT PUSH2 0x6D4 JUMPI DUP2 SWAP1 PUSH2 0x34D DUP5 SLOAD PUSH2 0x148E JUMP JUMPDEST PUSH1 0x1F DUP2 GT PUSH2 0x75A JUMPI JUMPDEST POP PUSH1 0x20 SWAP1 PUSH1 0x1F DUP4 GT PUSH1 0x1 EQ PUSH2 0x6F5 JUMPI PUSH1 0x0 SWAP3 PUSH2 0x6EA JUMPI JUMPDEST POP POP DUP2 PUSH1 0x1 SHL SWAP2 PUSH1 0x0 NOT SWAP1 PUSH1 0x3 SHL SHR NOT AND OR SWAP1 SSTORE JUMPDEST MLOAD DUP1 MLOAD PUSH1 0x6 DUP9 ADD SWAP2 PUSH8 0xFFFFFFFFFFFFFFFF DUP3 GT PUSH2 0x6D4 JUMPI DUP2 SWAP1 PUSH2 0x3A5 DUP5 SLOAD PUSH2 0x148E JUMP JUMPDEST PUSH1 0x1F DUP2 GT PUSH2 0x681 JUMPI JUMPDEST POP PUSH1 0x20 SWAP1 PUSH1 0x1F DUP4 GT PUSH1 0x1 EQ PUSH2 0x61C JUMPI PUSH1 0x0 SWAP3 PUSH2 0x611 JUMPI JUMPDEST POP POP DUP2 PUSH1 0x1 SHL SWAP2 PUSH1 0x0 NOT SWAP1 PUSH1 0x3 SHL SHR NOT AND OR SWAP1 SSTORE JUMPDEST MLOAD PUSH1 0x7 DUP7 ADD SSTORE PUSH1 0x8 DUP6 ADD SWAP2 MLOAD SWAP8 PUSH1 0x9 DUP10 LT ISZERO PUSH2 0x5FB JUMPI DUP3 SLOAD SWAP7 MLOAD SWAP1 MLOAD SWAP2 MLOAD PUSH4 0xFFFFFFFF NOT SWAP1 SWAP8 AND PUSH1 0xFF SWAP1 SWAP10 AND SWAP9 SWAP1 SWAP9 OR SWAP8 ISZERO ISZERO PUSH1 0x8 SHL PUSH2 0xFF00 AND SWAP8 SWAP1 SWAP8 OR SWAP7 ISZERO ISZERO PUSH1 0x10 SHL PUSH3 0xFF0000 AND SWAP7 SWAP1 SWAP7 OR SWAP4 ISZERO ISZERO PUSH1 0x18 SHL PUSH4 0xFF000000 AND SWAP4 SWAP1 SWAP4 OR SWAP1 SWAP5 SSTORE SWAP1 MLOAD PUSH1 0x9 DUP3 ADD SSTORE SWAP2 MLOAD PUSH1 0xA DUP4 ADD SSTORE MLOAD DUP1 MLOAD PUSH1 0x0 SWAP3 PUSH1 0xB ADD SWAP2 PUSH8 0xFFFFFFFFFFFFFFFF DUP3 GT PUSH2 0x5E7 JUMPI DUP2 SWAP1 PUSH2 0x46D DUP5 SLOAD PUSH2 0x148E JUMP JUMPDEST PUSH1 0x1F DUP2 GT PUSH2 0x597 JUMPI JUMPDEST POP PUSH1 0x20 SWAP1 PUSH1 0x1F DUP4 GT PUSH1 0x1 EQ PUSH2 0x534 JUMPI DUP6 SWAP3 PUSH2 0x529 JUMPI JUMPDEST POP POP DUP2 PUSH1 0x1 SHL SWAP2 PUSH1 0x0 NOT SWAP1 PUSH1 0x3 SHL SHR NOT AND OR SWAP1 SSTORE JUMPDEST DUP2 DUP2 MSTORE PUSH1 0x1 PUSH1 0x20 MSTORE PUSH2 0x4B6 DUP5 PUSH1 0x40 DUP4 KECCAK256 PUSH2 0x1707 JUMP JUMPDEST DUP3 DUP2 MSTORE PUSH1 0x1 PUSH1 0x20 MSTORE PUSH2 0x4CB DUP5 PUSH1 0x40 DUP4 KECCAK256 PUSH2 0x1707 JUMP JUMPDEST PUSH1 0x2 SLOAD SWAP1 PUSH1 0x0 NOT DUP3 EQ PUSH2 0x515 JUMPI POP PUSH32 0x9405AD0A6208539879349284D71265479B1623846F70303DA1F9890D6E8C10A7 PUSH1 0x20 DUP1 SWAP7 PUSH1 0x1 DUP8 SWAP5 ADD PUSH1 0x2 SSTORE PUSH1 0x40 MLOAD SWAP1 DUP2 MSTORE LOG4 PUSH1 0x40 MLOAD SWAP1 DUP2 MSTORE RETURN JUMPDEST PUSH4 0x4E487B71 PUSH1 0xE0 SHL DUP2 MSTORE PUSH1 0x11 PUSH1 0x4 MSTORE PUSH1 0x24 SWAP1 REVERT JUMPDEST ADD MLOAD SWAP1 POP CODESIZE DUP1 PUSH2 0x48C JUMP JUMPDEST DUP5 DUP7 MSTORE DUP2 DUP7 KECCAK256 SWAP3 POP PUSH1 0x1F NOT DUP5 AND DUP7 JUMPDEST DUP2 DUP2 LT PUSH2 0x57F JUMPI POP SWAP1 DUP5 PUSH1 0x1 SWAP6 SWAP5 SWAP4 SWAP3 LT PUSH2 0x566 JUMPI JUMPDEST POP POP POP DUP2 SHL ADD SWAP1 SSTORE PUSH2 0x4A1 JUMP JUMPDEST ADD MLOAD PUSH1 0x0 NOT PUSH1 0xF8 DUP5 PUSH1 0x3 SHL AND SHR NOT AND SWAP1 SSTORE CODESIZE DUP1 DUP1 PUSH2 0x559 JUMP JUMPDEST SWAP3 SWAP4 PUSH1 0x20 PUSH1 0x1 DUP2 SWAP3 DUP8 DUP7 ADD MLOAD DUP2 SSTORE ADD SWAP6 ADD SWAP4 ADD PUSH2 0x543 JUMP JUMPDEST SWAP1 SWAP2 POP DUP4 DUP6 MSTORE PUSH1 0x20 DUP6 KECCAK256 PUSH1 0x1F DUP5 ADD PUSH1 0x5 SHR DUP2 ADD SWAP2 PUSH1 0x20 DUP6 LT PUSH2 0x5DD JUMPI JUMPDEST SWAP1 PUSH1 0x1F DUP6 SWAP5 SWAP4 SWAP3 ADD PUSH1 0x5 SHR ADD SWAP1 JUMPDEST DUP2 DUP2 LT PUSH2 0x5CF JUMPI POP PUSH2 0x476 JUMP JUMPDEST DUP7 DUP2 SSTORE DUP5 SWAP4 POP PUSH1 0x1 ADD PUSH2 0x5C2 JUMP JUMPDEST SWAP1 SWAP2 POP DUP2 SWAP1 PUSH2 0x5B4 JUMP JUMPDEST PUSH4 0x4E487B71 PUSH1 0xE0 SHL DUP5 MSTORE PUSH1 0x41 PUSH1 0x4 MSTORE PUSH1 0x24 DUP5 REVERT JUMPDEST PUSH4 0x4E487B71 PUSH1 0xE0 SHL PUSH1 0x0 MSTORE PUSH1 0x21 PUSH1 0x4 MSTORE PUSH1 0x24 PUSH1 0x0 REVERT JUMPDEST ADD MLOAD SWAP1 POP CODESIZE DUP1 PUSH2 0x3C5 JUMP JUMPDEST PUSH1 0x0 DUP6 DUP2 MSTORE DUP3 DUP2 KECCAK256 SWAP4 POP PUSH1 0x1F NOT DUP6 AND SWAP1 JUMPDEST DUP2 DUP2 LT PUSH2 0x669 JUMPI POP SWAP1 DUP5 PUSH1 0x1 SWAP6 SWAP5 SWAP4 SWAP3 LT PUSH2 0x650 JUMPI JUMPDEST POP POP POP DUP2 SHL ADD SWAP1 SSTORE PUSH2 0x3DA JUMP JUMPDEST ADD MLOAD PUSH1 0x0 NOT PUSH1 0xF8 DUP5 PUSH1 0x3 SHL AND SHR NOT AND SWAP1 SSTORE CODESIZE DUP1 DUP1 PUSH2 0x643 JUMP JUMPDEST SWAP3 SWAP4 PUSH1 0x20 PUSH1 0x1 DUP2 SWAP3 DUP8 DUP7 ADD MLOAD DUP2 SSTORE ADD SWAP6 ADD SWAP4 ADD PUSH2 0x62D JUMP JUMPDEST SWAP1 SWAP2 POP DUP4 PUSH1 0x0 MSTORE PUSH1 0x20 PUSH1 0x0 KECCAK256 PUSH1 0x1F DUP5 ADD PUSH1 0x5 SHR DUP2 ADD SWAP2 PUSH1 0x20 DUP6 LT PUSH2 0x6CA JUMPI JUMPDEST SWAP1 PUSH1 0x1F DUP6 SWAP5 SWAP4 SWAP3 ADD PUSH1 0x5 SHR ADD SWAP1 JUMPDEST DUP2 DUP2 LT PUSH2 0x6BB JUMPI POP PUSH2 0x3AE JUMP JUMPDEST PUSH1 0x0 DUP2 SSTORE DUP5 SWAP4 POP PUSH1 0x1 ADD PUSH2 0x6AE JUMP JUMPDEST SWAP1 SWAP2 POP DUP2 SWAP1 PUSH2 0x6A0 JUMP JUMPDEST PUSH4 0x4E487B71 PUSH1 0xE0 SHL PUSH1 0x0 MSTORE PUSH1 0x41 PUSH1 0x4 MSTORE PUSH1 0x24 PUSH1 0x0 REVERT JUMPDEST ADD MLOAD SWAP1 POP CODESIZE DUP1 PUSH2 0x36D JUMP JUMPDEST PUSH1 0x0 DUP6 DUP2 MSTORE DUP3 DUP2 KECCAK256 SWAP4 POP PUSH1 0x1F NOT DUP6 AND SWAP1 JUMPDEST DUP2 DUP2 LT PUSH2 0x742 JUMPI POP SWAP1 DUP5 PUSH1 0x1 SWAP6 SWAP5 SWAP4 SWAP3 LT PUSH2 0x729 JUMPI JUMPDEST POP POP POP DUP2 SHL ADD SWAP1 SSTORE PUSH2 0x382 JUMP JUMPDEST ADD MLOAD PUSH1 0x0 NOT PUSH1 0xF8 DUP5 PUSH1 0x3 SHL AND SHR NOT AND SWAP1 SSTORE CODESIZE DUP1 DUP1 PUSH2 0x71C JUMP JUMPDEST SWAP3 SWAP4 PUSH1 0x20 PUSH1 0x1 DUP2 SWAP3 DUP8 DUP7 ADD MLOAD DUP2 SSTORE ADD SWAP6 ADD SWAP4 ADD PUSH2 0x706 JUMP JUMPDEST SWAP1 SWAP2 POP DUP4 PUSH1 0x0 MSTORE PUSH1 0x20 PUSH1 0x0 KECCAK256 PUSH1 0x1F DUP5 ADD PUSH1 0x5 SHR DUP2 ADD SWAP2 PUSH1 0x20 DUP6 LT PUSH2 0x7A3 JUMPI JUMPDEST SWAP1 PUSH1 0x1F DUP6 SWAP5 SWAP4 SWAP3 ADD PUSH1 0x5 SHR ADD SWAP1 JUMPDEST DUP2 DUP2 LT PUSH2 0x794 JUMPI POP PUSH2 0x356 JUMP JUMPDEST PUSH1 0x0 DUP2 SSTORE DUP5 SWAP4 POP PUSH1 0x1 ADD PUSH2 0x787 JUMP JUMPDEST SWAP1 SWAP2 POP DUP2 SWAP1 PUSH2 0x779 JUMP JUMPDEST ADD MLOAD SWAP1 POP CODESIZE DUP1 PUSH2 0x315 JUMP JUMPDEST PUSH1 0x0 DUP6 DUP2 MSTORE DUP3 DUP2 KECCAK256 SWAP4 POP PUSH1 0x1F NOT DUP6 AND SWAP1 JUMPDEST DUP2 DUP2 LT PUSH2 0x805 JUMPI POP SWAP1 DUP5 PUSH1 0x1 SWAP6 SWAP5 SWAP4 SWAP3 LT PUSH2 0x7EC JUMPI JUMPDEST POP POP POP DUP2 SHL ADD SWAP1 SSTORE PUSH2 0x32A JUMP JUMPDEST ADD MLOAD PUSH1 0x0 NOT PUSH1 0xF8 DUP5 PUSH1 0x3 SHL AND SHR NOT AND SWAP1 SSTORE CODESIZE DUP1 DUP1 PUSH2 0x7DF JUMP JUMPDEST SWAP3 SWAP4 PUSH1 0x20 PUSH1 0x1 DUP2 SWAP3 DUP8 DUP7 ADD MLOAD DUP2 SSTORE ADD SWAP6 ADD SWAP4 ADD PUSH2 0x7C9 JUMP JUMPDEST SWAP1 SWAP2 POP DUP4 PUSH1 0x0 MSTORE PUSH1 0x20 PUSH1 0x0 KECCAK256 PUSH1 0x1F DUP5 ADD PUSH1 0x5 SHR DUP2 ADD SWAP2 PUSH1 0x20 DUP6 LT PUSH2 0x866 JUMPI JUMPDEST SWAP1 PUSH1 0x1F DUP6 SWAP5 SWAP4 SWAP3 ADD PUSH1 0x5 SHR ADD SWAP1 JUMPDEST DUP2 DUP2 LT PUSH2 0x857 JUMPI POP PUSH2 0x2FE JUMP JUMPDEST PUSH1 0x0 DUP2 SSTORE DUP5 SWAP4 POP PUSH1 0x1 ADD PUSH2 0x84A JUMP JUMPDEST SWAP1 SWAP2 POP DUP2 SWAP1 PUSH2 0x83C JUMP JUMPDEST PUSH1 0x40 MLOAD PUSH3 0x461BCD PUSH1 0xE5 SHL DUP2 MSTORE PUSH1 0x20 PUSH1 0x4 DUP3 ADD MSTORE PUSH1 0x16 PUSH1 0x24 DUP3 ADD MSTORE PUSH22 0x141C9BD91D58DD081D1A5D1B19481C995C5D5A5C9959 PUSH1 0x52 SHL PUSH1 0x44 DUP3 ADD MSTORE PUSH1 0x64 SWAP1 REVERT JUMPDEST PUSH1 0x40 MLOAD PUSH3 0x461BCD PUSH1 0xE5 SHL DUP2 MSTORE PUSH1 0x20 PUSH1 0x4 DUP3 ADD MSTORE PUSH1 0x1D PUSH1 0x24 DUP3 ADD MSTORE PUSH32 0x416D6F756E74206D7573742062652067726561746572207468616E2030000000 PUSH1 0x44 DUP3 ADD MSTORE PUSH1 0x64 SWAP1 REVERT JUMPDEST PUSH1 0x40 MLOAD PUSH3 0x461BCD PUSH1 0xE5 SHL DUP2 MSTORE PUSH1 0x20 PUSH1 0x4 DUP3 ADD MSTORE PUSH1 0x11 PUSH1 0x24 DUP3 ADD MSTORE PUSH17 0x496E76616C696420616464726573736573 PUSH1 0x78 SHL PUSH1 0x44 DUP3 ADD MSTORE PUSH1 0x64 SWAP1 REVERT JUMPDEST POP DUP5 ISZERO ISZERO PUSH2 0x188 JUMP JUMPDEST PUSH1 0x40 MLOAD PUSH3 0x461BCD PUSH1 0xE5 SHL DUP2 MSTORE PUSH1 0x20 PUSH1 0x4 DUP3 ADD MSTORE PUSH1 0x23 PUSH1 0x24 DUP3 ADD MSTORE PUSH32 0x427579657220616E642073656C6C65722063616E6E6F74206265207468652073 PUSH1 0x44 DUP3 ADD MSTORE PUSH3 0x616D65 PUSH1 0xE8 SHL PUSH1 0x64 DUP3 ADD MSTORE PUSH1 0x84 SWAP1 REVERT JUMPDEST PUSH1 0x0 DUP1 REVERT JUMPDEST CALLVALUE PUSH2 0x986 JUMPI PUSH1 0x20 CALLDATASIZE PUSH1 0x3 NOT ADD SLT PUSH2 0x986 JUMPI PUSH1 0x4 CALLDATALOAD PUSH1 0x2 SLOAD DUP2 LT DUP1 PUSH2 0xB23 JUMPI JUMPDEST PUSH2 0x9B3 SWAP1 PUSH2 0x1677 JUMP JUMPDEST PUSH1 0x0 DUP2 DUP2 MSTORE PUSH1 0x20 DUP2 SWAP1 MSTORE PUSH1 0x40 SWAP1 KECCAK256 DUP1 SLOAD PUSH1 0x1 PUSH1 0x1 PUSH1 0xA0 SHL SUB AND CALLER SUB PUSH2 0xADE JUMPI PUSH1 0x8 DUP2 ADD SWAP1 DUP2 SLOAD SWAP2 PUSH1 0xFF DUP4 PUSH1 0x8 SHR AND PUSH2 0xAA2 JUMPI PUSH1 0xFF DUP4 AND SWAP3 PUSH1 0x9 DUP5 LT ISZERO PUSH2 0x5FB JUMPI PUSH2 0x100 PUSH1 0xFF SWAP2 PUSH2 0xA0E DUP7 DUP9 SWAP8 ISZERO SWAP1 DUP2 ISZERO PUSH2 0xA97 JUMPI JUMPDEST POP PUSH2 0x16BB JUMP JUMPDEST PUSH2 0xFF00 NOT AND OR DUP1 DUP4 SSTORE PUSH1 0x10 SHR AND ISZERO PUSH2 0xA84 JUMPI PUSH1 0x3 PUSH32 0xE3C2E3E893E063A23DDC6FAAB3E3C024F0524199C4AF658EEF25BB4EB35E390D SWAP3 PUSH1 0x20 SWAP3 DUP3 PUSH1 0xFF NOT DUP3 SLOAD AND OR SWAP1 SSTORE ADD SLOAD PUSH1 0x40 MLOAD SWAP1 DUP2 MSTORE LOG2 JUMPDEST CALLER SWAP1 PUSH32 0x7749BE28CF64FE132C4475FEB0AEC4133F13F95A84F1869A42911A8A7A0F0F31 PUSH1 0x0 DUP1 LOG3 STOP JUMPDEST DUP1 SLOAD PUSH1 0xFF NOT AND PUSH1 0x1 OR SWAP1 SSTORE POP PUSH2 0xA5B SWAP1 POP JUMP JUMPDEST PUSH1 0x2 SWAP2 POP EQ DUP10 PUSH2 0xA08 JUMP JUMPDEST PUSH1 0x40 MLOAD PUSH3 0x461BCD PUSH1 0xE5 SHL DUP2 MSTORE PUSH1 0x20 PUSH1 0x4 DUP3 ADD MSTORE PUSH1 0x14 PUSH1 0x24 DUP3 ADD MSTORE PUSH20 0x109D5E595C88185B1C9958591E481CDA59DB9959 PUSH1 0x62 SHL PUSH1 0x44 DUP3 ADD MSTORE PUSH1 0x64 SWAP1 REVERT JUMPDEST PUSH1 0x40 MLOAD PUSH3 0x461BCD PUSH1 0xE5 SHL DUP2 MSTORE PUSH1 0x20 PUSH1 0x4 DUP3 ADD MSTORE PUSH1 0x1C PUSH1 0x24 DUP3 ADD MSTORE PUSH32 0x4F6E6C792062757965722063616E207369676E20617320627579657200000000 PUSH1 0x44 DUP3 ADD MSTORE PUSH1 0x64 SWAP1 REVERT JUMPDEST POP PUSH1 0x1 PUSH2 0x9AA JUMP JUMPDEST CALLVALUE PUSH2 0x986 JUMPI PUSH1 0x40 CALLDATASIZE PUSH1 0x3 NOT ADD SLT PUSH2 0x986 JUMPI PUSH1 0x4 CALLDATALOAD PUSH1 0x24 CALLDATALOAD PUSH8 0xFFFFFFFFFFFFFFFF DUP2 GT PUSH2 0x986 JUMPI PUSH2 0xB5F SWAP1 CALLDATASIZE SWAP1 PUSH1 0x4 ADD PUSH2 0x1620 JUMP JUMPDEST DUP2 PUSH1 0x0 MSTORE PUSH1 0x0 PUSH1 0x20 MSTORE PUSH1 0x1 DUP1 PUSH1 0xA0 SHL SUB PUSH1 0x40 PUSH1 0x0 KECCAK256 SLOAD AND CALLER EQ DUP1 ISZERO PUSH2 0xCED JUMPI JUMPDEST ISZERO PUSH2 0xC94 JUMPI PUSH1 0x2 SLOAD DUP3 LT DUP1 PUSH2 0xC8C JUMPI JUMPDEST PUSH2 0xB98 SWAP1 PUSH2 0x1677 JUMP JUMPDEST DUP2 PUSH1 0x0 MSTORE PUSH1 0x0 PUSH1 0x20 MSTORE PUSH1 0x8 PUSH1 0x40 PUSH1 0x0 KECCAK256 ADD PUSH1 0xFF DUP2 SLOAD AND PUSH1 0x9 DUP2 LT ISZERO SWAP1 DUP2 PUSH2 0x5FB JUMPI DUP1 ISZERO SWAP2 DUP3 ISZERO PUSH2 0xC7E JUMPI JUMPDEST DUP3 ISZERO PUSH2 0xC6D JUMPI JUMPDEST POP POP ISZERO PUSH2 0xC1A JUMPI DUP1 SLOAD PUSH1 0xFF NOT AND PUSH1 0x8 OR SWAP1 SSTORE PUSH1 0x40 MLOAD PUSH1 0x20 DUP1 DUP3 MSTORE PUSH32 0xDF5AF23A8BFBD700E381C19607D03504D7A5BA1876C669CCCD37FEACE1F5ADAA SWAP3 DUP3 SWAP2 PUSH2 0xC15 SWAP2 SWAP1 DUP4 ADD SWAP1 PUSH2 0x158E JUMP JUMPDEST SUB SWAP1 LOG2 STOP JUMPDEST PUSH1 0x40 MLOAD PUSH3 0x461BCD PUSH1 0xE5 SHL DUP2 MSTORE PUSH1 0x20 PUSH1 0x4 DUP3 ADD MSTORE PUSH1 0x25 PUSH1 0x24 DUP3 ADD MSTORE PUSH32 0x43616E6E6F742063616E63656C20616374697665206F722066756E6465642065 PUSH1 0x44 DUP3 ADD MSTORE PUSH5 0x7363726F77 PUSH1 0xD8 SHL PUSH1 0x64 DUP3 ADD MSTORE PUSH1 0x84 SWAP1 REVERT JUMPDEST SWAP1 SWAP2 POP PUSH2 0x5FB JUMPI PUSH1 0x2 EQ DUP5 DUP1 PUSH2 0xBCA JUMP JUMPDEST POP PUSH1 0x1 DUP2 EQ SWAP2 POP PUSH1 0x0 PUSH2 0xBC3 JUMP JUMPDEST POP PUSH1 0x1 PUSH2 0xB8F JUMP JUMPDEST PUSH1 0x40 MLOAD PUSH3 0x461BCD PUSH1 0xE5 SHL DUP2 MSTORE PUSH1 0x20 PUSH1 0x4 DUP3 ADD MSTORE PUSH1 0x2B PUSH1 0x24 DUP3 ADD MSTORE PUSH32 0x4F6E6C79206275796572206F722073656C6C65722063616E2063616C6C207468 PUSH1 0x44 DUP3 ADD MSTORE PUSH11 0x34B990333AB731BA34B7B7 PUSH1 0xA9 SHL PUSH1 0x64 DUP3 ADD MSTORE PUSH1 0x84 SWAP1 REVERT JUMPDEST POP DUP2 PUSH1 0x0 MSTORE PUSH1 0x0 PUSH1 0x20 MSTORE PUSH1 0x1 DUP1 PUSH1 0xA0 SHL SUB PUSH1 0x1 PUSH1 0x40 PUSH1 0x0 KECCAK256 ADD SLOAD AND CALLER EQ PUSH2 0xB7F JUMP JUMPDEST CALLVALUE PUSH2 0x986 JUMPI PUSH1 0x20 CALLDATASIZE PUSH1 0x3 NOT ADD SLT PUSH2 0x986 JUMPI PUSH1 0x4 CALLDATALOAD PUSH1 0x2 SLOAD DUP2 LT DUP1 PUSH2 0xEAC JUMPI JUMPDEST PUSH2 0xD37 SWAP1 PUSH2 0x1677 JUMP JUMPDEST PUSH1 0x0 DUP2 DUP2 MSTORE PUSH1 0x20 DUP2 SWAP1 MSTORE PUSH1 0x40 SWAP1 KECCAK256 PUSH1 0x1 DUP2 ADD SLOAD PUSH1 0x1 PUSH1 0x1 PUSH1 0xA0 SHL SUB AND CALLER SUB PUSH2 0xE67 JUMPI PUSH1 0x8 DUP2 ADD SWAP1 DUP2 SLOAD SWAP2 PUSH1 0xFF DUP4 PUSH1 0x10 SHR AND PUSH2 0xE2A JUMPI PUSH1 0xFF DUP4 AND SWAP3 PUSH1 0x9 DUP5 LT ISZERO PUSH2 0x5FB JUMPI PUSH3 0x10000 PUSH1 0xFF SWAP2 PUSH2 0xD95 DUP7 DUP9 SWAP8 ISZERO SWAP1 DUP2 ISZERO PUSH2 0xE1F JUMPI POP PUSH2 0x16BB JUMP JUMPDEST PUSH3 0xFF0000 NOT AND OR DUP1 DUP4 SSTORE PUSH1 0x8 SHR AND ISZERO PUSH2 0xE0C JUMPI PUSH1 0x3 PUSH32 0xE3C2E3E893E063A23DDC6FAAB3E3C024F0524199C4AF658EEF25BB4EB35E390D SWAP3 PUSH1 0x20 SWAP3 DUP3 PUSH1 0xFF NOT DUP3 SLOAD AND OR SWAP1 SSTORE ADD SLOAD PUSH1 0x40 MLOAD SWAP1 DUP2 MSTORE LOG2 JUMPDEST CALLER SWAP1 PUSH32 0xAC7BA79CFE162ACF79B705D52B263CE0B8F67692678C90740474F1FF780F2475 PUSH1 0x0 DUP1 LOG3 STOP JUMPDEST DUP1 SLOAD PUSH1 0xFF NOT AND PUSH1 0x2 OR SWAP1 SSTORE POP PUSH2 0xDE3 SWAP1 POP JUMP JUMPDEST PUSH1 0x1 SWAP2 POP EQ DUP10 PUSH2 0xA08 JUMP JUMPDEST PUSH1 0x40 MLOAD PUSH3 0x461BCD PUSH1 0xE5 SHL DUP2 MSTORE PUSH1 0x20 PUSH1 0x4 DUP3 ADD MSTORE PUSH1 0x15 PUSH1 0x24 DUP3 ADD MSTORE PUSH21 0x14D95B1B195C88185B1C9958591E481CDA59DB9959 PUSH1 0x5A SHL PUSH1 0x44 DUP3 ADD MSTORE PUSH1 0x64 SWAP1 REVERT JUMPDEST PUSH1 0x40 MLOAD PUSH3 0x461BCD PUSH1 0xE5 SHL DUP2 MSTORE PUSH1 0x20 PUSH1 0x4 DUP3 ADD MSTORE PUSH1 0x1E PUSH1 0x24 DUP3 ADD MSTORE PUSH32 0x4F6E6C792073656C6C65722063616E207369676E2061732073656C6C65720000 PUSH1 0x44 DUP3 ADD MSTORE PUSH1 0x64 SWAP1 REVERT JUMPDEST POP PUSH1 0x1 PUSH2 0xD2E JUMP JUMPDEST CALLVALUE PUSH2 0x986 JUMPI PUSH1 0x0 CALLDATASIZE PUSH1 0x3 NOT ADD SLT PUSH2 0x986 JUMPI PUSH1 0x3 SLOAD PUSH1 0x40 MLOAD PUSH1 0x1 PUSH1 0x1 PUSH1 0xA0 SHL SUB SWAP1 SWAP2 AND DUP2 MSTORE PUSH1 0x20 SWAP1 RETURN JUMPDEST CALLVALUE PUSH2 0x986 JUMPI PUSH1 0x40 CALLDATASIZE PUSH1 0x3 NOT ADD SLT PUSH2 0x986 JUMPI PUSH2 0xEF6 PUSH2 0x15DC JUMP JUMPDEST PUSH1 0x1 PUSH1 0x1 PUSH1 0xA0 SHL SUB AND PUSH1 0x0 SWAP1 DUP2 MSTORE PUSH1 0x1 PUSH1 0x20 MSTORE PUSH1 0x40 SWAP1 KECCAK256 DUP1 SLOAD PUSH1 0x24 CALLDATALOAD SWAP2 SWAP1 DUP3 LT ISZERO PUSH2 0x986 JUMPI PUSH1 0x20 SWAP2 PUSH2 0xF27 SWAP2 PUSH2 0x15F2 JUMP JUMPDEST SWAP1 SLOAD SWAP1 PUSH1 0x3 SHL SHR PUSH1 0x40 MLOAD SWAP1 DUP2 MSTORE RETURN JUMPDEST CALLVALUE PUSH2 0x986 JUMPI PUSH1 0x20 CALLDATASIZE PUSH1 0x3 NOT ADD SLT PUSH2 0x986 JUMPI PUSH1 0x4 CALLDATALOAD PUSH1 0x2 SLOAD DUP2 LT DUP1 PUSH2 0x1029 JUMPI JUMPDEST PUSH2 0xF5E SWAP1 PUSH2 0x1677 JUMP JUMPDEST PUSH1 0x0 MSTORE PUSH1 0x0 PUSH1 0x20 MSTORE PUSH1 0x40 PUSH1 0x0 KECCAK256 PUSH1 0x1 DUP1 PUSH1 0xA0 SHL SUB DUP2 SLOAD AND PUSH1 0x1 DUP1 PUSH1 0xA0 SHL SUB PUSH1 0x1 DUP4 ADD SLOAD AND SWAP2 PUSH1 0x3 DUP2 ADD SLOAD SWAP1 PUSH1 0xFF PUSH2 0xFE9 PUSH1 0x8 DUP4 ADD SLOAD SWAP4 PUSH2 0xFDB PUSH1 0x9 DUP6 ADD SLOAD SWAP5 PUSH2 0xFB5 PUSH1 0x5 PUSH2 0xFAE PUSH1 0x4 DUP5 ADD PUSH2 0x14EA JUMP JUMPDEST SWAP3 ADD PUSH2 0x14EA JUMP JUMPDEST SWAP3 PUSH1 0x40 MLOAD SWAP10 DUP11 SWAP10 DUP11 MSTORE PUSH1 0x20 DUP11 ADD MSTORE PUSH1 0x40 DUP10 ADD MSTORE PUSH2 0x140 PUSH1 0x60 DUP10 ADD MSTORE PUSH2 0x140 DUP9 ADD SWAP1 PUSH2 0x158E JUMP JUMPDEST SWAP1 DUP7 DUP3 SUB PUSH1 0x80 DUP9 ADD MSTORE PUSH2 0x158E JUMP JUMPDEST SWAP3 PUSH2 0xFF9 PUSH1 0xA0 DUP7 ADD DUP4 DUP4 AND PUSH2 0x15CF JUMP JUMPDEST DUP2 DUP2 PUSH1 0x8 SHR AND ISZERO ISZERO PUSH1 0xC0 DUP7 ADD MSTORE DUP2 DUP2 PUSH1 0x10 SHR AND ISZERO ISZERO PUSH1 0xE0 DUP7 ADD MSTORE PUSH1 0x18 SHR AND ISZERO ISZERO PUSH2 0x100 DUP5 ADD MSTORE PUSH2 0x120 DUP4 ADD MSTORE SUB SWAP1 RETURN JUMPDEST POP PUSH1 0x1 PUSH2 0xF55 JUMP JUMPDEST CALLVALUE PUSH2 0x986 JUMPI PUSH1 0x0 CALLDATASIZE PUSH1 0x3 NOT ADD SLT PUSH2 0x986 JUMPI PUSH1 0x20 PUSH1 0x2 SLOAD PUSH1 0x40 MLOAD SWAP1 DUP2 MSTORE RETURN JUMPDEST CALLVALUE PUSH2 0x986 JUMPI PUSH1 0x20 CALLDATASIZE PUSH1 0x3 NOT ADD SLT PUSH2 0x986 JUMPI PUSH1 0x1 PUSH1 0x1 PUSH1 0xA0 SHL SUB PUSH2 0x1070 PUSH2 0x15DC JUMP JUMPDEST AND PUSH1 0x0 MSTORE PUSH1 0x1 PUSH1 0x20 MSTORE PUSH1 0x40 PUSH1 0x0 KECCAK256 PUSH1 0x40 MLOAD DUP1 PUSH1 0x20 DUP4 SLOAD SWAP2 DUP3 DUP2 MSTORE ADD SWAP1 DUP2 SWAP4 PUSH1 0x0 MSTORE PUSH1 0x20 PUSH1 0x0 KECCAK256 SWAP1 PUSH1 0x0 JUMPDEST DUP2 DUP2 LT PUSH2 0x10F3 JUMPI POP POP POP DUP2 PUSH2 0x10B0 SWAP2 SUB DUP3 PUSH2 0x14C8 JUMP JUMPDEST PUSH1 0x40 MLOAD SWAP2 DUP3 SWAP2 PUSH1 0x20 DUP4 ADD SWAP1 PUSH1 0x20 DUP5 MSTORE MLOAD DUP1 SWAP2 MSTORE PUSH1 0x40 DUP4 ADD SWAP2 SWAP1 PUSH1 0x0 JUMPDEST DUP2 DUP2 LT PUSH2 0x10DA JUMPI POP POP POP SUB SWAP1 RETURN JUMPDEST DUP3 MLOAD DUP5 MSTORE DUP6 SWAP5 POP PUSH1 0x20 SWAP4 DUP5 ADD SWAP4 SWAP1 SWAP3 ADD SWAP2 PUSH1 0x1 ADD PUSH2 0x10CC JUMP JUMPDEST DUP3 SLOAD DUP5 MSTORE PUSH1 0x20 SWAP1 SWAP4 ADD SWAP3 PUSH1 0x1 SWAP3 DUP4 ADD SWAP3 ADD PUSH2 0x109A JUMP JUMPDEST PUSH1 0x20 CALLDATASIZE PUSH1 0x3 NOT ADD SLT PUSH2 0x986 JUMPI PUSH1 0x4 CALLDATALOAD PUSH1 0x2 SLOAD DUP2 LT DUP1 PUSH2 0x12F5 JUMPI JUMPDEST PUSH2 0x112C SWAP1 PUSH2 0x1677 JUMP JUMPDEST PUSH1 0x0 DUP2 DUP2 MSTORE PUSH1 0x20 DUP2 SWAP1 MSTORE PUSH1 0x40 SWAP1 KECCAK256 DUP1 SLOAD PUSH1 0x1 PUSH1 0x1 PUSH1 0xA0 SHL SUB AND CALLER SUB PUSH2 0x12B0 JUMPI PUSH1 0x8 DUP2 ADD SWAP1 DUP2 SLOAD SWAP1 PUSH1 0xFF DUP3 AND PUSH1 0x9 DUP2 LT ISZERO PUSH2 0x5FB JUMPI PUSH1 0x3 SUB PUSH2 0x125C JUMPI PUSH1 0xFF DUP3 PUSH1 0x18 SHR AND PUSH2 0x1217 JUMPI PUSH1 0x3 ADD SLOAD PUSH1 0x5 SLOAD DUP2 ADD DUP1 SWAP2 GT PUSH2 0x1201 JUMPI CALLVALUE SUB PUSH2 0x11C4 JUMPI PUSH4 0x1000000 SWAP1 PUSH4 0xFF000000 NOT AND OR SWAP1 SSTORE PUSH32 0x26679FA1F3868C950E9362F1106CF73F3318DE0280E0411A3C68E4B463EADD4F PUSH1 0x20 PUSH1 0x40 MLOAD CALLVALUE DUP2 MSTORE LOG2 STOP JUMPDEST PUSH1 0x40 MLOAD PUSH3 0x461BCD PUSH1 0xE5 SHL DUP2 MSTORE PUSH1 0x20 PUSH1 0x4 DUP3 ADD MSTORE PUSH1 0x15 PUSH1 0x24 DUP3 ADD MSTORE PUSH21 0x125B98DBDC9C9958DD08185B5BDD5B9D081CD95B9D PUSH1 0x5A SHL PUSH1 0x44 DUP3 ADD MSTORE PUSH1 0x64 SWAP1 REVERT JUMPDEST PUSH4 0x4E487B71 PUSH1 0xE0 SHL PUSH1 0x0 MSTORE PUSH1 0x11 PUSH1 0x4 MSTORE PUSH1 0x24 PUSH1 0x0 REVERT JUMPDEST PUSH1 0x40 MLOAD PUSH3 0x461BCD PUSH1 0xE5 SHL DUP2 MSTORE PUSH1 0x20 PUSH1 0x4 DUP3 ADD MSTORE PUSH1 0x17 PUSH1 0x24 DUP3 ADD MSTORE PUSH32 0x46756E647320616C7265616479206465706F7369746564000000000000000000 PUSH1 0x44 DUP3 ADD MSTORE PUSH1 0x64 SWAP1 REVERT JUMPDEST PUSH1 0x40 MLOAD PUSH3 0x461BCD PUSH1 0xE5 SHL DUP2 MSTORE PUSH1 0x20 PUSH1 0x4 DUP3 ADD MSTORE PUSH1 0x26 PUSH1 0x24 DUP3 ADD MSTORE PUSH32 0x457363726F77206D7573742062652061637469766520746F206465706F736974 PUSH1 0x44 DUP3 ADD MSTORE PUSH6 0x2066756E6473 PUSH1 0xD0 SHL PUSH1 0x64 DUP3 ADD MSTORE PUSH1 0x84 SWAP1 REVERT JUMPDEST PUSH1 0x40 MLOAD PUSH3 0x461BCD PUSH1 0xE5 SHL DUP2 MSTORE PUSH1 0x20 PUSH1 0x4 DUP3 ADD MSTORE PUSH1 0x1C PUSH1 0x24 DUP3 ADD MSTORE PUSH32 0x4F6E6C792062757965722063616E206465706F7369742066756E647300000000 PUSH1 0x44 DUP3 ADD MSTORE PUSH1 0x64 SWAP1 REVERT JUMPDEST POP PUSH1 0x1 PUSH2 0x1123 JUMP JUMPDEST CALLVALUE PUSH2 0x986 JUMPI PUSH1 0x0 CALLDATASIZE PUSH1 0x3 NOT ADD SLT PUSH2 0x986 JUMPI PUSH1 0x20 PUSH1 0x5 SLOAD PUSH1 0x40 MLOAD SWAP1 DUP2 MSTORE RETURN JUMPDEST CALLVALUE PUSH2 0x986 JUMPI PUSH1 0x0 CALLDATASIZE PUSH1 0x3 NOT ADD SLT PUSH2 0x986 JUMPI PUSH1 0x4 SLOAD PUSH1 0x40 MLOAD PUSH1 0x1 PUSH1 0x1 PUSH1 0xA0 SHL SUB SWAP1 SWAP2 AND DUP2 MSTORE PUSH1 0x20 SWAP1 RETURN JUMPDEST CALLVALUE PUSH2 0x986 JUMPI PUSH1 0x20 CALLDATASIZE PUSH1 0x3 NOT ADD SLT PUSH2 0x986 JUMPI PUSH1 0x4 DUP1 CALLDATALOAD PUSH1 0x0 SWAP1 DUP2 MSTORE PUSH1 0x20 DUP2 SWAP1 MSTORE PUSH1 0x40 SWAP1 KECCAK256 DUP1 SLOAD PUSH1 0x1 DUP3 ADD SLOAD PUSH1 0x2 DUP4 ADD SLOAD PUSH1 0x3 DUP5 ADD SLOAD PUSH1 0x1 PUSH1 0x1 PUSH1 0xA0 SHL SUB SWAP3 DUP4 AND SWAP6 SWAP4 DUP4 AND SWAP5 SWAP2 SWAP1 SWAP3 AND SWAP3 PUSH2 0x1398 SWAP1 DUP3 ADD PUSH2 0x14EA JUMP JUMPDEST SWAP2 PUSH2 0x13A5 PUSH1 0x5 DUP4 ADD PUSH2 0x14EA JUMP JUMPDEST SWAP3 PUSH2 0x13B2 PUSH1 0x6 DUP5 ADD PUSH2 0x14EA JUMP JUMPDEST PUSH1 0x7 DUP5 ADD SLOAD SWAP5 PUSH1 0x8 DUP6 ADD SLOAD SWAP3 PUSH1 0x9 DUP7 ADD SLOAD SWAP5 PUSH1 0xA DUP8 ADD SLOAD SWAP7 PUSH1 0xB ADD PUSH2 0x13D6 SWAP1 PUSH2 0x14EA JUMP JUMPDEST SWAP9 PUSH1 0x40 MLOAD SWAP12 DUP13 SWAP12 DUP13 MSTORE PUSH1 0x20 DUP13 ADD MSTORE PUSH1 0x40 DUP12 ADD MSTORE PUSH1 0x60 DUP11 ADD MSTORE PUSH1 0x80 DUP10 ADD PUSH2 0x1E0 SWAP1 MSTORE PUSH2 0x1E0 DUP10 ADD PUSH2 0x1405 SWAP2 PUSH2 0x158E JUMP JUMPDEST DUP9 DUP2 SUB PUSH1 0xA0 DUP11 ADD MSTORE PUSH2 0x1416 SWAP2 PUSH2 0x158E JUMP JUMPDEST DUP8 DUP2 SUB PUSH1 0xC0 DUP10 ADD MSTORE PUSH2 0x1427 SWAP2 PUSH2 0x158E JUMP JUMPDEST SWAP4 PUSH1 0xE0 DUP8 ADD MSTORE PUSH2 0x100 DUP7 ADD PUSH1 0xFF DUP3 AND SWAP1 PUSH2 0x1440 SWAP2 PUSH2 0x15CF JUMP JUMPDEST DUP1 PUSH1 0x8 SHR PUSH1 0xFF AND ISZERO ISZERO PUSH2 0x120 DUP8 ADD MSTORE DUP1 PUSH1 0x10 SHR PUSH1 0xFF AND ISZERO ISZERO PUSH2 0x140 DUP8 ADD MSTORE PUSH1 0x18 SHR PUSH1 0xFF AND ISZERO ISZERO PUSH2 0x160 DUP7 ADD MSTORE PUSH2 0x180 DUP6 ADD MSTORE PUSH2 0x1A0 DUP5 ADD MSTORE DUP3 DUP2 SUB PUSH2 0x1C0 DUP5 ADD MSTORE PUSH2 0x148A SWAP2 PUSH2 0x158E JUMP JUMPDEST SUB SWAP1 RETURN JUMPDEST SWAP1 PUSH1 0x1 DUP3 DUP2 SHR SWAP3 AND DUP1 ISZERO PUSH2 0x14BE JUMPI JUMPDEST PUSH1 0x20 DUP4 LT EQ PUSH2 0x14A8 JUMPI JUMP JUMPDEST PUSH4 0x4E487B71 PUSH1 0xE0 SHL PUSH1 0x0 MSTORE PUSH1 0x22 PUSH1 0x4 MSTORE PUSH1 0x24 PUSH1 0x0 REVERT JUMPDEST SWAP2 PUSH1 0x7F AND SWAP2 PUSH2 0x149D JUMP JUMPDEST SWAP1 PUSH1 0x1F DUP1 NOT SWAP2 ADD AND DUP2 ADD SWAP1 DUP2 LT PUSH8 0xFFFFFFFFFFFFFFFF DUP3 GT OR PUSH2 0x6D4 JUMPI PUSH1 0x40 MSTORE JUMP JUMPDEST SWAP1 PUSH1 0x40 MLOAD SWAP2 DUP3 PUSH1 0x0 DUP3 SLOAD SWAP3 PUSH2 0x14FE DUP5 PUSH2 0x148E JUMP JUMPDEST DUP1 DUP5 MSTORE SWAP4 PUSH1 0x1 DUP2 AND SWAP1 DUP2 ISZERO PUSH2 0x156C JUMPI POP PUSH1 0x1 EQ PUSH2 0x1525 JUMPI JUMPDEST POP PUSH2 0x1523 SWAP3 POP SUB DUP4 PUSH2 0x14C8 JUMP JUMPDEST JUMP JUMPDEST SWAP1 POP PUSH1 0x0 SWAP3 SWAP2 SWAP3 MSTORE PUSH1 0x20 PUSH1 0x0 KECCAK256 SWAP1 PUSH1 0x0 SWAP2 JUMPDEST DUP2 DUP4 LT PUSH2 0x1550 JUMPI POP POP SWAP1 PUSH1 0x20 PUSH2 0x1523 SWAP3 DUP3 ADD ADD CODESIZE PUSH2 0x1516 JUMP JUMPDEST PUSH1 0x20 SWAP2 SWAP4 POP DUP1 PUSH1 0x1 SWAP2 SLOAD DUP4 DUP6 DUP10 ADD ADD MSTORE ADD SWAP2 ADD SWAP1 SWAP2 DUP5 SWAP3 PUSH2 0x1537 JUMP JUMPDEST SWAP1 POP PUSH1 0x20 SWAP3 POP PUSH2 0x1523 SWAP5 SWAP2 POP PUSH1 0xFF NOT AND DUP3 DUP5 ADD MSTORE ISZERO ISZERO PUSH1 0x5 SHL DUP3 ADD ADD CODESIZE PUSH2 0x1516 JUMP JUMPDEST SWAP2 SWAP1 DUP3 MLOAD SWAP3 DUP4 DUP3 MSTORE PUSH1 0x0 JUMPDEST DUP5 DUP2 LT PUSH2 0x15BA JUMPI POP POP DUP3 PUSH1 0x0 PUSH1 0x20 DUP1 SWAP5 SWAP6 DUP5 ADD ADD MSTORE PUSH1 0x1F DUP1 NOT SWAP2 ADD AND ADD ADD SWAP1 JUMP JUMPDEST DUP1 PUSH1 0x20 DUP1 SWAP3 DUP5 ADD ADD MLOAD DUP3 DUP3 DUP7 ADD ADD MSTORE ADD PUSH2 0x1599 JUMP JUMPDEST SWAP1 PUSH1 0x9 DUP3 LT ISZERO PUSH2 0x5FB JUMPI MSTORE JUMP JUMPDEST PUSH1 0x4 CALLDATALOAD SWAP1 PUSH1 0x1 PUSH1 0x1 PUSH1 0xA0 SHL SUB DUP3 AND DUP3 SUB PUSH2 0x986 JUMPI JUMP JUMPDEST DUP1 SLOAD DUP3 LT ISZERO PUSH2 0x160A JUMPI PUSH1 0x0 MSTORE PUSH1 0x20 PUSH1 0x0 KECCAK256 ADD SWAP1 PUSH1 0x0 SWAP1 JUMP JUMPDEST PUSH4 0x4E487B71 PUSH1 0xE0 SHL PUSH1 0x0 MSTORE PUSH1 0x32 PUSH1 0x4 MSTORE PUSH1 0x24 PUSH1 0x0 REVERT JUMPDEST DUP2 PUSH1 0x1F DUP3 ADD SLT ISZERO PUSH2 0x986 JUMPI DUP1 CALLDATALOAD SWAP1 PUSH8 0xFFFFFFFFFFFFFFFF DUP3 GT PUSH2 0x6D4 JUMPI PUSH1 0x40 MLOAD SWAP3 PUSH2 0x1655 PUSH1 0x1F DUP5 ADD PUSH1 0x1F NOT AND PUSH1 0x20 ADD DUP6 PUSH2 0x14C8 JUMP JUMPDEST DUP3 DUP5 MSTORE PUSH1 0x20 DUP4 DUP4 ADD ADD GT PUSH2 0x986 JUMPI DUP2 PUSH1 0x0 SWAP3 PUSH1 0x20 DUP1 SWAP4 ADD DUP4 DUP7 ADD CALLDATACOPY DUP4 ADD ADD MSTORE SWAP1 JUMP JUMPDEST ISZERO PUSH2 0x167E JUMPI JUMP JUMPDEST PUSH1 0x40 MLOAD PUSH3 0x461BCD PUSH1 0xE5 SHL DUP2 MSTORE PUSH1 0x20 PUSH1 0x4 DUP3 ADD MSTORE PUSH1 0x15 PUSH1 0x24 DUP3 ADD MSTORE PUSH21 0x115CD8DC9BDDC8191BD95CC81B9BDD08195E1A5CDD PUSH1 0x5A SHL PUSH1 0x44 DUP3 ADD MSTORE PUSH1 0x64 SWAP1 REVERT JUMPDEST ISZERO PUSH2 0x16C2 JUMPI JUMP JUMPDEST PUSH1 0x40 MLOAD PUSH3 0x461BCD PUSH1 0xE5 SHL DUP2 MSTORE PUSH1 0x20 PUSH1 0x4 DUP3 ADD MSTORE PUSH1 0x19 PUSH1 0x24 DUP3 ADD MSTORE PUSH32 0x496E76616C696420737461746520666F72207369676E696E6700000000000000 PUSH1 0x44 DUP3 ADD MSTORE PUSH1 0x64 SWAP1 REVERT JUMPDEST DUP1 SLOAD PUSH9 0x10000000000000000 DUP2 LT ISZERO PUSH2 0x6D4 JUMPI PUSH2 0x1729 SWAP2 PUSH1 0x1 DUP3 ADD DUP2 SSTORE PUSH2 0x15F2 JUMP JUMPDEST DUP2 SWAP3 SWAP2 SLOAD SWAP1 PUSH1 0x3 SHL SWAP2 DUP3 SHL SWAP2 PUSH1 0x0 NOT SWAP1 SHL NOT AND OR SWAP1 SSTORE JUMP INVALID LOG2 PUSH5 0x6970667358 0x22 SLT KECCAK256 0x4B DIV SWAP8 0xDB BALANCE 0xD 0xBF 0xCC 0xD1 0xAE TSTORE PUSH9 0xD8E27EA11485D6485D 0xEB BASEFEE 0xC6 0xC6 DUP14 0xBB 0xAF 0xE2 0x2F DUP4 0xD8 PUSH5 0x736F6C6343 STOP ADDMOD SHR STOP CALLER "},"methodIdentifiers":{"authenticationFee()":"2efea2b6","authenticatorAddress()":"1fc6cf22","buyerSign(uint256)":"d5b504ce","cancelEscrow(uint256,string)":"d2af2bcb","createEscrow(address,address,uint256,string,string,string,uint256,string)":"e29a4cc8","depositFunds(uint256)":"3b76594d","escrowCount()":"675ac67a","escrows(uint256)":"012f52ee","getEscrow(uint256)":"7d19e596","getTotalEscrows()":"3f4dbda2","getUserEscrows(address)":"5ccea85e","owner()":"8da5cb5b","sellerSign(uint256)":"c535bbb2","userEscrows(address,uint256)":"7f944dd0"}}}}}