{
  "_format": "hh-sol-artifact-1",
  "contractName": "CrowEscrow",
  "sourceName": "contracts/CrowEscrow.sol",
  "abi": [
    {
      "inputs": [
        {
          "internalType": "address",
          "name": "_authenticator",
          "type": "address"
        }
      ],
      "stateMutability": "nonpayable",
      "type": "constructor"
    },
    {
      "anonymous": false,
      "inputs": [
        {
          "indexed": true,
          "internalType": "uint256",
          "name": "escrowId",
          "type": "uint256"
        },
        {
          "indexed": true,
          "internalType": "address",
          "name": "buyer",
          "type": "address"
        }
      ],
      "name": "BuyerSigned",
      "type": "event"
    },
    {
      "anonymous": false,
      "inputs": [
        {
          "indexed": true,
          "internalType": "uint256",
          "name": "escrowId",
          "type": "uint256"
        },
        {
          "indexed": true,
          "internalType": "address",
          "name": "raiser",
          "type": "address"
        }
      ],
      "name": "DisputeRaised",
      "type": "event"
    },
    {
      "anonymous": false,
      "inputs": [
        {
          "indexed": true,
          "internalType": "uint256",
          "name": "escrowId",
          "type": "uint256"
        },
        {
          "indexed": false,
          "internalType": "uint256",
          "name": "amount",
          "type": "uint256"
        }
      ],
      "name": "EscrowActivated",
      "type": "event"
    },
    {
      "anonymous": false,
      "inputs": [
        {
          "indexed": true,
          "internalType": "uint256",
          "name": "escrowId",
          "type": "uint256"
        },
        {
          "indexed": false,
          "internalType": "string",
          "name": "reason",
          "type": "string"
        }
      ],
      "name": "EscrowCancelled",
      "type": "event"
    },
    {
      "anonymous": false,
      "inputs": [
        {
          "indexed": true,
          "internalType": "uint256",
          "name": "escrowId",
          "type": "uint256"
        },
        {
          "indexed": true,
          "internalType": "address",
          "name": "buyer",
          "type": "address"
        },
        {
          "indexed": true,
          "internalType": "address",
          "name": "seller",
          "type": "address"
        }
      ],
      "name": "EscrowCompleted",
      "type": "event"
    },
    {
      "anonymous": false,
      "inputs": [
        {
          "indexed": true,
          "internalType": "uint256",
          "name": "escrowId",
          "type": "uint256"
        },
        {
          "indexed": true,
          "internalType": "address",
          "name": "buyer",
          "type": "address"
        },
        {
          "indexed": true,
          "internalType": "address",
          "name": "seller",
          "type": "address"
        },
        {
          "indexed": false,
          "internalType": "uint256",
          "name": "amount",
          "type": "uint256"
        }
      ],
      "name": "EscrowCreated",
      "type": "event"
    },
    {
      "anonymous": false,
      "inputs": [
        {
          "indexed": true,
          "internalType": "uint256",
          "name": "escrowId",
          "type": "uint256"
        },
        {
          "indexed": false,
          "internalType": "uint256",
          "name": "amount",
          "type": "uint256"
        }
      ],
      "name": "FundsDeposited",
      "type": "event"
    },
    {
      "anonymous": false,
      "inputs": [
        {
          "indexed": true,
          "internalType": "uint256",
          "name": "escrowId",
          "type": "uint256"
        },
        {
          "indexed": true,
          "internalType": "address",
          "name": "seller",
          "type": "address"
        }
      ],
      "name": "SellerSigned",
      "type": "event"
    },
    {
      "inputs": [],
      "name": "authenticationFee",
      "outputs": [
        {
          "internalType": "uint256",
          "name": "",
          "type": "uint256"
        }
      ],
      "stateMutability": "view",
      "type": "function"
    },
    {
      "inputs": [],
      "name": "authenticatorAddress",
      "outputs": [
        {
          "internalType": "address",
          "name": "",
          "type": "address"
        }
      ],
      "stateMutability": "view",
      "type": "function"
    },
    {
      "inputs": [
        {
          "internalType": "uint256",
          "name": "_escrowId",
          "type": "uint256"
        }
      ],
      "name": "buyerSign",
      "outputs": [],
      "stateMutability": "nonpayable",
      "type": "function"
    },
    {
      "inputs": [
        {
          "internalType": "uint256",
          "name": "_escrowId",
          "type": "uint256"
        },
        {
          "internalType": "string",
          "name": "_reason",
          "type": "string"
        }
      ],
      "name": "cancelEscrow",
      "outputs": [],
      "stateMutability": "nonpayable",
      "type": "function"
    },
    {
      "inputs": [
        {
          "internalType": "address",
          "name": "_buyer",
          "type": "address"
        },
        {
          "internalType": "address",
          "name": "_seller",
          "type": "address"
        },
        {
          "internalType": "uint256",
          "name": "_amount",
          "type": "uint256"
        },
        {
          "internalType": "string",
          "name": "_productTitle",
          "type": "string"
        },
        {
          "internalType": "string",
          "name": "_productDescription",
          "type": "string"
        },
        {
          "internalType": "string",
          "name": "_deliveryAddress",
          "type": "string"
        },
        {
          "internalType": "uint256",
          "name": "_estimatedDeliveryDays",
          "type": "uint256"
        },
        {
          "internalType": "string",
          "name": "_ipfsHash",
          "type": "string"
        }
      ],
      "name": "createEscrow",
      "outputs": [
        {
          "internalType": "uint256",
          "name": "",
          "type": "uint256"
        }
      ],
      "stateMutability": "nonpayable",
      "type": "function"
    },
    {
      "inputs": [
        {
          "internalType": "uint256",
          "name": "_escrowId",
          "type": "uint256"
        }
      ],
      "name": "depositFunds",
      "outputs": [],
      "stateMutability": "payable",
      "type": "function"
    },
    {
      "inputs": [],
      "name": "escrowCount",
      "outputs": [
        {
          "internalType": "uint256",
          "name": "",
          "type": "uint256"
        }
      ],
      "stateMutability": "view",
      "type": "function"
    },
    {
      "inputs": [
        {
          "internalType": "uint256",
          "name": "",
          "type": "uint256"
        }
      ],
      "name": "escrows",
      "outputs": [
        {
          "internalType": "address",
          "name": "buyer",
          "type": "address"
        },
        {
          "internalType": "address",
          "name": "seller",
          "type": "address"
        },
        {
          "internalType": "address",
          "name": "authenticator",
          "type": "address"
        },
        {
          "internalType": "uint256",
          "name": "amount",
          "type": "uint256"
        },
        {
          "internalType": "string",
          "name": "productTitle",
          "type": "string"
        },
        {
          "internalType": "string",
          "name": "productDescription",
          "type": "string"
        },
        {
          "internalType": "string",
          "name": "deliveryAddress",
          "type": "string"
        },
        {
          "internalType": "uint256",
          "name": "estimatedDeliveryDays",
          "type": "uint256"
        },
        {
          "internalType": "enum CrowEscrow.EscrowState",
          "name": "state",
          "type": "uint8"
        },
        {
          "internalType": "bool",
          "name": "buyerSigned",
          "type": "bool"
        },
        {
          "internalType": "bool",
          "name": "sellerSigned",
          "type": "bool"
        },
        {
          "internalType": "bool",
          "name": "fundsDeposited",
          "type": "bool"
        },
        {
          "internalType": "uint256",
          "name": "createdAt",
          "type": "uint256"
        },
        {
          "internalType": "uint256",
          "name": "completedAt",
          "type": "uint256"
        },
        {
          "internalType": "string",
          "name": "ipfsHash",
          "type": "string"
        }
      ],
      "stateMutability": "view",
      "type": "function"
    },
    {
      "inputs": [
        {
          "internalType": "uint256",
          "name": "_escrowId",
          "type": "uint256"
        }
      ],
      "name": "getEscrow",
      "outputs": [
        {
          "internalType": "address",
          "name": "buyer",
          "type": "address"
        },
        {
          "internalType": "address",
          "name": "seller",
          "type": "address"
        },
        {
          "internalType": "uint256",
          "name": "amount",
          "type": "uint256"
        },
        {
          "internalType": "string",
          "name": "productTitle",
          "type": "string"
        },
        {
          "internalType": "string",
          "name": "productDescription",
          "type": "string"
        },
        {
          "internalType": "enum CrowEscrow.EscrowState",
          "name": "state",
          "type": "uint8"
        },
        {
          "internalType": "bool",
          "name": "buyerSigned",
          "type": "bool"
        },
        {
          "internalType": "bool",
          "name": "sellerSigned",
          "type": "bool"
        },
        {
          "internalType": "bool",
          "name": "fundsDeposited",
          "type": "bool"
        },
        {
          "internalType": "uint256",
          "name": "createdAt",
          "type": "uint256"
        }
      ],
      "stateMutability": "view",
      "type": "function"
    },
    {
      "inputs": [],
      "name": "getTotalEscrows",
      "outputs": [
        {
          "internalType": "uint256",
          "name": "",
          "type": "uint256"
        }
      ],
      "stateMutability": "view",
      "type": "function"
    },
    {
      "inputs": [
        {
          "internalType": "address",
          "name": "_user",
          "type": "address"
        }
      ],
      "name": "getUserEscrows",
      "outputs": [
        {
          "internalType": "uint256[]",
          "name": "",
          "type": "uint256[]"
        }
      ],
      "stateMutability": "view",
      "type": "function"
    },
    {
      "inputs": [],
      "name": "owner",
      "outputs": [
        {
          "internalType": "address",
          "name": "",
          "type": "address"
        }
      ],
      "stateMutability": "view",
      "type": "function"
    },
    {
      "inputs": [
        {
          "internalType": "uint256",
          "name": "_escrowId",
          "type": "uint256"
        }
      ],
      "name": "sellerSign",
      "outputs": [],
      "stateMutability": "nonpayable",
      "type": "function"
    },
    {
      "inputs": [
        {
          "internalType": "address",
          "name": "",
          "type": "address"
        },
        {
          "internalType": "uint256",
          "name": "",
          "type": "uint256"
        }
      ],
      "name": "userEscrows",
      "outputs": [
        {
          "internalType": "uint256",
          "name": "",
          "type": "uint256"
        }
      ],
      "stateMutability": "view",
      "type": "function"
    }
  ],
  "bytecode": "0x608034608e57601f61182138819003918201601f19168301916001600160401b03831184841017609357808492602094604052833981010312608e57516001600160a01b03811690819003608e57662386f26fc10000600555600380546001600160a01b0319908116331790915560048054909116919091179055600060025560405161177790816100aa8239f35b600080fd5b634e487b7160e01b600052604160045260246000fdfe6080604052600436101561001257600080fd5b60003560e01c8063012f52ee146113445780631fc6cf221461131b5780632efea2b6146112fd5780633b76594d146111095780633f4dbda2146110315780635ccea85e1461104f578063675ac67a146110315780637d19e59614610f365780637f944dd014610edd5780638da5cb5b14610eb4578063c535bbb214610d0f578063d2af2bcb14610b2b578063d5b504ce1461098b5763e29a4cc8146100b657600080fd5b3461098657610100366003190112610986576100d06115dc565b6024356001600160a01b0381169190829003610986576044359160643567ffffffffffffffff81116109865761010a903690600401611620565b60843567ffffffffffffffff81116109865761012a903690600401611620565b9260a43567ffffffffffffffff81116109865761014b903690600401611620565b9060e43567ffffffffffffffff81116109865761016c903690600401611620565b6001600160a01b0390911692848414610935578315158061092c575b156108f35786156108ae578051156108705760025460045460405191976101e08301916001600160a01b03169067ffffffffffffffff8311848410176106d457899260405287845260208401918983526040850190815260608501978c89526080860196875260a0860192835260c0860190815260e086019060c43582526101008701936000855261012088019860008a5261014089019b60008d526101608a0195600087526101808b0198428a526101a08c019a60008c526101c08d019e8f52600052600060205260406000209b60018060a01b039060018060a01b03905116166001600160601b0360a01b8d5416178c5560018060a01b0390511660018c019060018060a01b03166001600160601b0360a01b82541617905560018060a01b0390511660028b019060018060a01b03166001600160601b0360a01b8254161790555160038a015560048901905180519067ffffffffffffffff82116106d45781906102f5845461148e565b601f811161081d575b50602090601f83116001146107b8576000926107ad575b50508160011b916000199060031b1c19161790555b518051600589019167ffffffffffffffff82116106d457819061034d845461148e565b601f811161075a575b50602090601f83116001146106f5576000926106ea575b50508160011b916000199060031b1c19161790555b518051600688019167ffffffffffffffff82116106d45781906103a5845461148e565b601f8111610681575b50602090601f831160011461061c57600092610611575b50508160011b916000199060031b1c19161790555b5160078601556008850191519760098910156105fb57825496519051915163ffffffff1990971660ff9099169890981797151560081b61ff00169790971796151560101b62ff0000169690961793151560181b63ff0000001693909317909455905160098201559151600a830155518051600092600b019167ffffffffffffffff82116105e757819061046d845461148e565b601f8111610597575b50602090601f8311600114610534578592610529575b50508160011b916000199060031b1c19161790555b81815260016020526104b68460408320611707565b82815260016020526104cb8460408320611707565b60025490600019821461051557507f9405ad0a6208539879349284d71265479b1623846f70303da1f9890d6e8c10a7602080966001879401600255604051908152a4604051908152f35b634e487b7160e01b81526011600452602490fd5b01519050388061048c565b8486528186209250601f198416865b81811061057f5750908460019594939210610566575b505050811b0190556104a1565b015160001960f88460031b161c19169055388080610559565b92936020600181928786015181550195019301610543565b90915083855260208520601f840160051c810191602085106105dd575b90601f859493920160051c01905b8181106105cf5750610476565b8681558493506001016105c2565b90915081906105b4565b634e487b7160e01b84526041600452602484fd5b634e487b7160e01b600052602160045260246000fd5b0151905038806103c5565b60008581528281209350601f198516905b8181106106695750908460019594939210610650575b505050811b0190556103da565b015160001960f88460031b161c19169055388080610643565b9293602060018192878601518155019501930161062d565b909150836000526020600020601f840160051c810191602085106106ca575b90601f859493920160051c01905b8181106106bb57506103ae565b600081558493506001016106ae565b90915081906106a0565b634e487b7160e01b600052604160045260246000fd5b01519050388061036d565b60008581528281209350601f198516905b8181106107425750908460019594939210610729575b505050811b019055610382565b015160001960f88460031b161c1916905538808061071c565b92936020600181928786015181550195019301610706565b909150836000526020600020601f840160051c810191602085106107a3575b90601f859493920160051c01905b8181106107945750610356565b60008155849350600101610787565b9091508190610779565b015190503880610315565b60008581528281209350601f198516905b81811061080557509084600195949392106107ec575b505050811b01905561032a565b015160001960f88460031b161c191690553880806107df565b929360206001819287860151815501950193016107c9565b909150836000526020600020601f840160051c81019160208510610866575b90601f859493920160051c01905b81811061085757506102fe565b6000815584935060010161084a565b909150819061083c565b60405162461bcd60e51b8152602060048201526016602482015275141c9bd91d58dd081d1a5d1b19481c995c5d5a5c995960521b6044820152606490fd5b60405162461bcd60e51b815260206004820152601d60248201527f416d6f756e74206d7573742062652067726561746572207468616e20300000006044820152606490fd5b60405162461bcd60e51b8152602060048201526011602482015270496e76616c69642061646472657373657360781b6044820152606490fd5b50841515610188565b60405162461bcd60e51b815260206004820152602360248201527f427579657220616e642073656c6c65722063616e6e6f74206265207468652073604482015262616d6560e81b6064820152608490fd5b600080fd5b3461098657602036600319011261098657600435600254811080610b23575b6109b390611677565b600081815260208190526040902080546001600160a01b03163303610ade57600881019081549160ff8360081c16610aa25760ff83169260098410156105fb5761010060ff91610a0e86889715908115610a97575b506116bb565b61ff0019161780835560101c1615610a845760037fe3c2e3e893e063a23ddc6faab3e3c024f0524199c4af658eef25bb4eb35e390d926020928260ff198254161790550154604051908152a25b33907f7749be28cf64fe132c4475feb0aec4133f13f95a84f1869a42911a8a7a0f0f31600080a3005b805460ff1916600117905550610a5b9050565b600291501489610a08565b60405162461bcd60e51b8152602060048201526014602482015273109d5e595c88185b1c9958591e481cda59db995960621b6044820152606490fd5b60405162461bcd60e51b815260206004820152601c60248201527f4f6e6c792062757965722063616e207369676e206173206275796572000000006044820152606490fd5b5060016109aa565b346109865760403660031901126109865760043560243567ffffffffffffffff811161098657610b5f903690600401611620565b81600052600060205260018060a01b036040600020541633148015610ced575b15610c9457600254821080610c8c575b610b9890611677565b816000526000602052600860406000200160ff815416600981101590816105fb578015918215610c7e575b8215610c6d575b505015610c1a57805460ff1916600817905560405160208082527fdf5af23a8bfbd700e381c19607d03504d7a5ba1876c669cccd37feace1f5adaa928291610c15919083019061158e565b0390a2005b60405162461bcd60e51b815260206004820152602560248201527f43616e6e6f742063616e63656c20616374697665206f722066756e64656420656044820152647363726f7760d81b6064820152608490fd5b9091506105fb576002148480610bca565b506001811491506000610bc3565b506001610b8f565b60405162461bcd60e51b815260206004820152602b60248201527f4f6e6c79206275796572206f722073656c6c65722063616e2063616c6c20746860448201526a34b990333ab731ba34b7b760a91b6064820152608490fd5b5081600052600060205260018060a01b03600160406000200154163314610b7f565b3461098657602036600319011261098657600435600254811080610eac575b610d3790611677565b600081815260208190526040902060018101546001600160a01b03163303610e6757600881019081549160ff8360101c16610e2a5760ff83169260098410156105fb576201000060ff91610d9586889715908115610e1f57506116bb565b62ff000019161780835560081c1615610e0c5760037fe3c2e3e893e063a23ddc6faab3e3c024f0524199c4af658eef25bb4eb35e390d926020928260ff198254161790550154604051908152a25b33907fac7ba79cfe162acf79b705d52b263ce0b8f67692678c90740474f1ff780f2475600080a3005b805460ff1916600217905550610de39050565b600191501489610a08565b60405162461bcd60e51b815260206004820152601560248201527414d95b1b195c88185b1c9958591e481cda59db9959605a1b6044820152606490fd5b60405162461bcd60e51b815260206004820152601e60248201527f4f6e6c792073656c6c65722063616e207369676e2061732073656c6c657200006044820152606490fd5b506001610d2e565b34610986576000366003190112610986576003546040516001600160a01b039091168152602090f35b3461098657604036600319011261098657610ef66115dc565b6001600160a01b031660009081526001602052604090208054602435919082101561098657602091610f27916115f2565b90549060031b1c604051908152f35b3461098657602036600319011261098657600435600254811080611029575b610f5e90611677565b6000526000602052604060002060018060a01b0381541660018060a01b036001830154169160038101549060ff610fe9600883015493610fdb600985015494610fb56005610fae600484016114ea565b92016114ea565b92604051998a998a5260208a01526040890152610140606089015261014088019061158e565b90868203608088015261158e565b92610ff960a086018383166115cf565b818160081c16151560c0860152818160101c16151560e086015260181c1615156101008401526101208301520390f35b506001610f55565b34610986576000366003190112610986576020600254604051908152f35b34610986576020366003190112610986576001600160a01b036110706115dc565b16600052600160205260406000206040518060208354918281520190819360005260206000209060005b8181106110f357505050816110b09103826114c8565b6040519182916020830190602084525180915260408301919060005b8181106110da575050500390f35b82518452859450602093840193909201916001016110cc565b825484526020909301926001928301920161109a565b6020366003190112610986576004356002548110806112f5575b61112c90611677565b600081815260208190526040902080546001600160a01b031633036112b057600881019081549060ff821660098110156105fb5760030361125c5760ff8260181c16611217576003015460055481018091116112015734036111c45763010000009063ff00000019161790557f26679fa1f3868c950e9362f1106cf73f3318de0280e0411a3c68e4b463eadd4f6020604051348152a2005b60405162461bcd60e51b8152602060048201526015602482015274125b98dbdc9c9958dd08185b5bdd5b9d081cd95b9d605a1b6044820152606490fd5b634e487b7160e01b600052601160045260246000fd5b60405162461bcd60e51b815260206004820152601760248201527f46756e647320616c7265616479206465706f73697465640000000000000000006044820152606490fd5b60405162461bcd60e51b815260206004820152602660248201527f457363726f77206d7573742062652061637469766520746f206465706f7369746044820152652066756e647360d01b6064820152608490fd5b60405162461bcd60e51b815260206004820152601c60248201527f4f6e6c792062757965722063616e206465706f7369742066756e6473000000006044820152606490fd5b506001611123565b34610986576000366003190112610986576020600554604051908152f35b34610986576000366003190112610986576004546040516001600160a01b039091168152602090f35b346109865760203660031901126109865760048035600090815260208190526040902080546001820154600283015460038401546001600160a01b03928316959383169491909216926113989082016114ea565b916113a5600583016114ea565b926113b2600684016114ea565b600784015494600885015492600986015494600a87015496600b016113d6906114ea565b986040519b8c9b8c5260208c015260408b015260608a0152608089016101e090526101e089016114059161158e565b88810360a08a01526114169161158e565b87810360c08901526114279161158e565b9360e0870152610100860160ff821690611440916115cf565b8060081c60ff1615156101208701528060101c60ff16151561014087015260181c60ff1615156101608601526101808501526101a08401528281036101c084015261148a9161158e565b0390f35b90600182811c921680156114be575b60208310146114a857565b634e487b7160e01b600052602260045260246000fd5b91607f169161149d565b90601f8019910116810190811067ffffffffffffffff8211176106d457604052565b90604051918260008254926114fe8461148e565b808452936001811690811561156c5750600114611525575b50611523925003836114c8565b565b90506000929192526020600020906000915b8183106115505750509060206115239282010138611516565b6020919350806001915483858901015201910190918492611537565b90506020925061152394915060ff191682840152151560051b82010138611516565b919082519283825260005b8481106115ba575050826000602080949584010152601f8019910116010190565b80602080928401015182828601015201611599565b9060098210156105fb5752565b600435906001600160a01b038216820361098657565b805482101561160a5760005260206000200190600090565b634e487b7160e01b600052603260045260246000fd5b81601f820112156109865780359067ffffffffffffffff82116106d45760405192611655601f8401601f1916602001856114c8565b8284526020838301011161098657816000926020809301838601378301015290565b1561167e57565b60405162461bcd60e51b8152602060048201526015602482015274115cd8dc9bddc8191bd95cc81b9bdd08195e1a5cdd605a1b6044820152606490fd5b156116c257565b60405162461bcd60e51b815260206004820152601960248201527f496e76616c696420737461746520666f72207369676e696e67000000000000006044820152606490fd5b8054680100000000000000008110156106d457611729916001820181556115f2565b819291549060031b91821b91600019901b191617905556fea26469706673582212204b0497db310dbfccd1ae5d68d8e27ea11485d6485deb48c6c68dbbafe22f83d864736f6c634300081c0033",
  "linkReferences": {},
  "deployedLinkReferences": {}
}